:100000000000042099F10000D5F10000D7F10000B4
:10001000D9F10000DBF10000DDF10000000000007C
:10002000000000000000000000000000DFF1000000
:10003000E1F1000000000000E3F10000E5F1000044
:10004000F1470000E7F100007DB600002DB600008A
:1000500041B60000D53400007D1C0000A5790000E9
:10006000DFA10000F9A1000015A200000975000041
:10007000A5990000AD6C0000E7F10000E7F1000079
:10008000ADB4000021750000D957000069B600002A
:100090008595000095950000A5950000B595000098
:1000A000C5950000D595000031A200004DA20000CA
:1000B00015530000353C0000000000000000000067
:1000C000E7F100002D5300004553000055B6000035
:1000D000397500004D260000E7F10000E7F100004F
:1000E00061B2000057690000E7F100000000000065
:1000F000000000005D53000000000000058F0000BC
:1001000000000000000000000000000000000000EF
:1001100000000000000000000000000000000000DF
:1001200000000000000000000000000000000000CF
:1001300000000000000000000000000000000000BF
:1001400000000000000000000000000000000000AF
:10015000000000000000000000000000000000009F
:10016000000000000000000000000000000000008F
:10017000000000000000000000000000000000007F
:10018000000000000000000000000000000000006F
:10019000000000000000000000000000000000005F
:1001A000000000000000000000000000000000004F
:1001B000000000000000000000000000000000003F
:1001C000000000000000000000000000000000002F
:1001D000000000000000000000000000000000001F
:1001E000000000000000000000000000000000000F
:1001F00000000000000000000000000000000000FF
:1002000010B5054C237833B9044B13B10448AFF350
:1002100000800123237010BD340000200000000086
:10022000CCF5000008B5034B1BB103490348AFF3FD
:10023000008008BD0000000038000020CCF5000060
:1002400002440346934200D1704703F8011BF9E7CB
:1002500080B483B000AF0346FB7197F90730002BE1
:100260000BDBFB7903F01F02074997F907305B09A5
:10027000012000FA02F241F8232000BF0C37BD46EE
:100280005DF8047B704700BF00E100E080B483B0FC
:1002900000AF0346FB7197F90730002B12DBFB79A7
:1002A00003F01F020A4997F907305B09012000FAA1
:1002B00002F2203341F82320BFF34F8F00BFBFF37A
:1002C0006F8F00BF00BF0C37BD465DF8047B7047E1
:1002D00000E100E080B483B000AF0346FB7197F902
:1002E0000730002B0CDBFB7903F01F02074997F95D
:1002F00007305B09012000FA02F2603341F8232045
:1003000000BF0C37BD465DF8047B704700E100E09C
:1003100080B483B000AF03463960FB7197F90730B2
:10032000002B0ADB3B68DAB20C4997F9073052011F
:10033000D2B20B4483F800230AE03B68DAB20849E2
:10034000FB7903F00F03043B5201D2B20B441A763F
:1003500000BF0C37BD465DF8047B704700E100E04C
:1003600000ED00E080B483B000AF78607B681B0BC9
:100370005BB218460C37BD465DF8047B704780B50C
:1003800082B000AF0346FB7197F907301846FFF7BC
:10039000A1FF97F907301846FFF75AFF00BF08374B
:1003A000BD4680BD80B483B000AF0346FB71114AE7
:1003B00097F90730002B00DA1F335B115BB252F85C
:1003C000232097F90730594203F01F0301F01F0162
:1003D00058BF4B425BB222FA03F303F00103002B38
:1003E00014BF01230023DBB218460C37BD465DF86D
:1003F000047B704700E100E080B582B000AF0346A7
:10040000FB7197F907301846FFF740FF00BF083728
:10041000BD4680BD80B483B000AF78604FF08042AD
:100420007B68C2F8043300BF0C37BD465DF8047B1F
:10043000704780B483B000AF78604FF080427B6833
:10044000C2F8083300BF0C37BD465DF8047B704727
:1004500080B483B000AF0346FB71FB7903F18043A6
:1004600001221A6000BF0C37BD465DF8047B70475F
:1004700080B485B000AF0346FB80FB8803F1804366
:1004800000221A60FB8803F180431B68FB60FB6855
:1004900000BF1437BD465DF8047B704780B483B05D
:1004A00000AF0346FB80FB8803F180431B68002BF1
:1004B00014BF01230023DBB218460C37BD465DF89C
:1004C000047B704780B483B000AF78604FF0804207
:1004D0007B68C2F8183500BF0C37BD465DF8047B59
:1004E000704780B400AF4FF08043D3F818341B0C32
:1004F00003F00103002B14BF01230023DBB21846D5
:10050000BD465DF8047B704780B483B000AF0346FE
:10051000FB714FF08043D3F80C3403F00112FB79E8
:1005200043F480339A420CBF01230023DBB2184608
:100530000C37BD465DF8047B704780B582B000AFD4
:100540000723FB714FF08040FFF70CFF034618466E
:10055000FFF728FF034683F00103DBB2002B12D024
:100560004FF08040FFF7FEFE03461A46FB7919461E
:100570001046FFF7CDFE4FF08040FFF7F3FE034635
:100580001846FFF7FCFE00BF0837BD4680BD80B4AB
:1005900085B000AF78600C4BFB600C4B1B79002BD7
:1005A00002D00B4BFB6008E0084A7B681360074BE6
:1005B00001221A71054B00225A71FB681846143744
:1005C000BD465DF8047B70470000AD0B5000002075
:1005D0000C00AD0B80B500AFFFF7AFFF0120FFF7B8
:1005E00071FF024B01221A7000BF80BD580000202D
:1005F00080B500AF0B4B1B7883F00103DBB2002BFF
:1006000007D04FF08040FFF7ADFE03461846FFF7D6
:10061000F3FE0320FFF70DFF034B00221A7000BF0B
:1006200080BD00BFFC0000205800002080B500AF56
:1006300000F018F800F039F8024B00221A7100BFE0
:1006400080BD00BF5000002080B500AF4FF4827025
:10065000FFF70EFF0220FFF7DDFE0820FFF7F8FE90
:1006600000BF80BD80B500AF0220FFF7E2FE4FF46F
:100670008270FFF7FDFE0C20FFF7EAFE00BFFFF7D8
:1006800030FF0346002BFAD100BF00BF80BD80B50C
:1006900000AF4FF48070FFF7EBFE0120FFF7BAFECA
:1006A0000020FFF7D5FE00BF80BD80B500AF012060
:1006B000FFF7BFFE4FF48070FFF7DAFE0420FFF76C
:1006C000C7FE00BF0120FFF71FFF0346002BF9D133
:1006D000024B00225A7100BF80BD00BF50000020B5
:1006E00080B483B000AF044B7B607B6818460C3746
:1006F000BD465DF8047B70470000AD0B80B400AFD1
:10070000024B1846BD465DF8047B70470000AD0BF8
:1007100080B483B000AF0346FB7100BF0C37BD4609
:100720005DF8047B704780B400AF00BFBD465DF844
:10073000047B704780B500AF4FF48070FFF7AEFECA
:100740000346002B14D04FF48070FFF791FE012078
:10075000FFF76FFE104B5B7983F00103DBB2002BD8
:1007600006D00D4B01225A710B4B1B680020984795
:100770004FF48270FFF792FE0346002B0AD04FF42D
:100780008270FFF775FE0220FFF753FE024B1B68D5
:100790000120984700BF80BD5000002080B483B086
:1007A00000AF0346FB7197F90730002B0BDBFB7999
:1007B00003F01F02074997F907305B09012000FA8F
:1007C00002F241F8232000BF0C37BD465DF8047BE0
:1007D000704700BF00E100E080B483B000AF034683
:1007E000FB7197F90730002B0CDBFB7903F01F023C
:1007F000074997F907305B09012000FA02F26033DC
:1008000041F8232000BF0C37BD465DF8047B7047DC
:1008100000E100E080B483B000AF03463960FB71B3
:1008200097F90730002B0ADB3B68DAB20C4997F9DD
:1008300007305201D2B20B4483F800230AE03B6830
:10084000DAB20849FB7903F00F03043B5201D2B23C
:100850000B441A7600BF0C37BD465DF8047B704729
:1008600000E100E000ED00E080B483B000AF78600C
:100870007B681B0B5BB218460C37BD465DF8047BEA
:10088000704780B582B000AF0346FB7197F907301F
:100890001846FFF7A1FF97F907301846FFF77EFFCC
:1008A00000BF0837BD4680BD80B483B000AF0346AB
:1008B000FB71FB7903F1804303F5C0431A46012322
:1008C000136000BF0C37BD465DF8047B704780B4F1
:1008D00083B000AF0346FB71FB7903F1804303F55E
:1008E000C04318460C37BD465DF8047B704780B5A1
:1008F00082B000AF0346FB80FB88184600F024F866
:1009000003461B68012B0CBF01230023DBB21846F2
:100910000837BD4680BD80B584B000AF0346FB807C
:10092000FB88184600F010F803461A4600231360AF
:10093000FB88184600F008F803461B68FB60FB685C
:1009400000BF1037BD4680BD80B483B000AF034602
:10095000FB80FB8803F1804303F5C04318460C3746
:10096000BD465DF8047B704780B483B000AF78600B
:10097000044A7B68C2F8043300BF0C37BD465DF8FB
:10098000047B70470060004080B483B000AF7860A3
:10099000044A7B68C2F8083300BF0C37BD465DF8D7
:1009A000047B70470060004080B483B000AF786083
:1009B000054BD3F804237B68134018460C37BD461B
:1009C0005DF8047B704700BF0060004080B483B0D6
:1009D00000AF7860094A7B6803F5A27352F82330B0
:1009E000064943F001027B6803F5A27341F8232016
:1009F00000BF0C37BD465DF8047B704700600040C7
:100A000080B483B000AF7860094A7B6803F5A273B5
:100A100052F82330064923F001027B6803F5A273E4
:100A200041F8232000BF0C37BD465DF8047B7047BA
:100A30000060004080B485B000AFF860B960134634
:100A4000FB71164AFB6803F5A27352F82330134971
:100A500023F44F3323F44073FA6802F5A27241F88D
:100A600022300E4AFB6803F5A27352F82320BB68BC
:100A70001B0203F47C51FB791B0403F440330B434A
:100A800006491A43FB6803F5A27341F8232000BF0F
:100A90001437BD465DF8047B704700BF006000401E
:100AA00080B483B000AF7860074A7B6803F5A27317
:100AB00052F823301B0A03F03F0318460C37BD469B
:100AC0005DF8047B704700BF0060004080B483B0D5
:100AD00000AF7860074A7B6803F5A27352F82330B1
:100AE0001B0C03F00303DBB218460C37BD465DF860
:100AF000047B70470060004080B485B000AF786030
:100B00000A4A7B6803F5A27352F8233043F00303CB
:100B1000FB6006497B6803F5A273FA6841F823205D
:100B200000BF1437BD465DF8047B7047006000408D
:100B300080B483B000AF7860094A7B6803F5A27384
:100B400052F82330064923F003027B6803F5A273B1
:100B500041F8232000BF0C37BD465DF8047B704789
:100B60000060004080B485B000AFF860B960114605
:100B70001A460B46FB711346BB71184AFB6803F516
:100B8000A27352F82330154923F4991323F4F85330
:100B9000FA6802F5A27241F82230104AFB6803F5A8
:100BA000A27352F82320BB681B0203F47C51FB792B
:100BB0001B0403F440331943BB791B0503F4801372
:100BC0000B4306491A43FB6803F5A27341F823203F
:100BD00000BF1437BD465DF8047B704700600040DD
:100BE00080B483B000AF78600B46FB700C4A7B6822
:100BF00003F5A27352F8233023F48012FB781B050F
:100C000003F4801306491A437B6803F5A27341F885
:100C1000232000BF0C37BD465DF8047B704700BF42
:100C20000060004080B483B000AF7860064A7B6803
:100C300003F5A273002142F8231000BF0C37BD4614
:100C40005DF8047B704700BF0060004080B483B053
:100C500000AF78607B681B681F2B02D84FF0A04361
:100C600006E07B681B6803F01F027B681A60034B79
:100C700018460C37BD465DF8047B704700030050F2
:100C800080B584B000AF7860084611461A46034626
:100C9000FB700B46BB7013467B703B1D1846FFF77D
:100CA000D5FFF860FA78BB785B001A437B789B002D
:100CB0001A433B7E1B0242EA03013B7F1B047A6816
:100CC0001943FB6802F5E07243F8221000BF1037A9
:100CD000BD4680BD80B584B002AF7860002301932B
:100CE000002300930023012201217868FFF7C8FF49
:100CF00000BF0837BD4680BD80B584B002AF7860C4
:100D00000B46FB70FB780022019200220092002229
:100D100000217868FFF7B4FF00BF0837BD4680BDEB
:100D200080B584B002AF7860002301930023009364
:100D30000023012200217868FFF7A2FF00BF0837D7
:100D4000BD4680BD80B584B000AF78603B1D1846BD
:100D5000FFF77CFFF8607A68FB6802F5E07253F8F1
:100D6000223023F00203BB607A68FB6802F5E07270
:100D7000B96843F8221000BF1037BD4680BD80B56A
:100D800084B000AF78600B46FB703B1D1846FFF740
:100D90005DFFF8607A68FB6802F5E07253F8223074
:100DA0007A6823F44031FB6802F5E07243F82210C0
:100DB0007A68FB6802F5E07253F82230FA78120480
:100DC00011467A681943FB6802F5E07243F8221075
:100DD00000BF1037BD4680BD80B584B000AF7860DD
:100DE0003B1D1846FFF732FFF8607B68012202FACC
:100DF00003F31946F86800F076F800BF1037BD46D7
:100E000080BD80B584B000AF78603B1D1846FFF709
:100E10001DFFF8607B68012202FA03F31946F868A7
:100E200000F070F800BF1037BD4680BD80B584B0BB
:100E300000AF78603B1D1846FFF708FFF860FB68BD
:100E4000D3F80435BB60BB68DA437B68012101FA43
:100E500003F31A40FB68C3F808257B6801229A4017
:100E6000BB681A40FB68C3F80C2500BF1037BD46AD
:100E700080BD80B584B000AF78603B1D1846FFF799
:100E8000E5FEF860F86800F021F802467B6822FA77
:100E900003F303F0010318461037BD4680BD80B54B
:100EA00084B000AF78603B1D1846FFF7CFFEF860B6
:100EB0007A68FB6802F5E07253F822301B0C03F0ED
:100EC0000303DBB218461037BD4680BD80B483B043
:100ED00000AF78607B68D3F8103518460C37BD46F4
:100EE0005DF8047B704780B483B000AF78603960F0
:100EF0007B683A68C3F8082500BF0C37BD465DF82B
:100F0000047B704780B483B000AF786039607B6841
:100F10003A68C3F80C2500BF0C37BD465DF8047B6A
:100F2000704780B489B000AFF860B9607A60184A41
:100F300007F1140392E8030083E80300FB68FB61F8
:100F400019E0FB699B0020333B4453F80C3CD3F879
:100F500020257B681A60FB699B0020333B4453F8D3
:100F60000C3C7A681268C3F820257B6804337B60E8
:100F7000FB690133FB61FA68BB681344FA699A4262
:100F8000DFD300BF00BF2437BD465DF8047B704748
:100F900030F5000080B584B000AF78603B1D184686
:100FA000FFF754FEF8607B68012202FA03F31A4649
:100FB000FB68C3F8202500BF1037BD4680BD80B454
:100FC00085B000AF78607B685B09BB600023FB6085
:100FD000BB68002B03D0BB68012B04D007E04FF0A7
:100FE000FF33FB6003E04FF6FF73FB6000BF7B68DD
:100FF00003F01F037B60FA687B6822FA03F303F0B7
:101000000103002B14BF01230023DBB21846143761
:10101000BD465DF8047B704780B485B000AF786052
:1010200039603B68FB607B68DB08BB607B6803F072
:1010300007037B6001227B6802FA03F3F968BA6850
:101040000A441278134018461437BD465DF8047BF5
:10105000704780B485B000AF786039603B68FB6052
:101060007B68DB08BB607B6803F007037B60FA6882
:10107000BB6813441B785AB201217B6801FA03F361
:101080005BB2134359B2FA68BB681344CAB21A7010
:1010900000BF1437BD465DF8047B704780B485B04F
:1010A00000AF786039603B68FB607B68DB08BB6041
:1010B0007B6803F007037B60FA68BB6813441B7806
:1010C0005AB201217B6801FA03F35BB2DB435BB2E6
:1010D000134059B2FA68BB681344CAB21A7000BF11
:1010E0001437BD465DF8047B704780B483B000AF11
:1010F0007860094A7B681344243393F90030B3F1D4
:10110000FF3F14BF01230023DBB218460C37BD4656
:101110005DF8047B704700BF5C00002080B483B0A2
:1011200000AF7860084A7B681344243393F9003099
:1011300013F1020F0CBF01230023DBB218460C375A
:10114000BD465DF8047B70475C00002080B483B02E
:1011500000AF78600D4A7B681344243393F9003064
:10116000002B09DB094A7B681344243393F90030D0
:10117000072B01DC012300E0002303F00103DBB2B5
:1011800018460C37BD465DF8047B70475C000020B4
:1011900080B483B000AF7860084A7B68134424337E
:1011A00093F90030072BCCBF01230023DBB2184694
:1011B0000C37BD465DF8047B704700BF5C00002023
:1011C00080B483B000AF7860074A7B68134424334F
:1011D00093F90030DB43DBB2DB09DBB218460C3796
:1011E000BD465DF8047B70475C00002080B485B08C
:1011F00000AFF860B9607A60FB70BB6859B2104A02
:10120000FB68134424330A461A700D49BB687A6898
:1012100041F82320FB7883F00103DBB2002B08D0D8
:10122000BB68083BFA6851B2054A13440A4683F882
:10123000542000BF1437BD465DF8047B704700BFE3
:101240005C00002080B483B000AF7860054A7B6802
:1012500013442433FE221A7000BF0C37BD465DF8DC
:10126000047B70475C00002080B483B000AF7860DE
:10127000054A7B6813442433FF221A7000BF0C37E1
:10128000BD465DF8047B70475C00002080B582B0ED
:1012900000AF786003497868FFF7DBFE00BF0837CE
:1012A000BD4680BDB100002080B582B000AF78603F
:1012B00003497868FFF7F2FE00BF0837BD4680BDDE
:1012C000B100002080B582B000AF78600649786830
:1012D000FFF7A2FE0346002B14BF01230023DBB25D
:1012E00018460837BD4680BDB100002080B483B0E9
:1012F00000AF7860054A7B681344243393F90030CB
:1013000018460C37BD465DF8047B70475C00002032
:1013100080B483B000AF7860044A7B6852F8233011
:1013200018460C37BD465DF8047B70475C00002012
:1013300080B485B000AF7860074A7B6813445433AB
:1013400093F90030FB73FB7B23F0C003184614377E
:10135000BD465DF8047B70475C00002080B485B01A
:1013600000AF7860074A7B681344543393F9003028
:10137000FB73FB7B9B09DBB218461437BD465DF857
:10138000047B70475C00002080B588B000AFF86037
:10139000B9601346FB71FF23FB77FB79002B01D06B
:1013A000002300E008237B61FB79002B01D0082398
:1013B00000E009233B617B69BB6112E00E4ABB6917
:1013C00052F82330B3F1FF3F08D1FB79BA68B9690D
:1013D000F868FFF70BFFBB69FB7706E0BB690133D9
:1013E000BB61BA693B699A42E8D397F91F30184646
:1013F0002037BD4680BD00BF5C00002080B483B0B4
:1014000000AF0346FB71FB790A4A4FF0FF3142F807
:101410002310FB79072B06D9FB79083B054A1344B7
:10142000FF2283F8542000BF0C37BD465DF8047BD3
:10143000704700BF5C00002080B582B000AF284B31
:1014400093F85B30002B03D0264B3B603B6843E0B6
:101450000023FB710DE0FB791846FFF7B0FD034652
:10146000002B03D0FB791846FFF7FEFEFB79013312
:10147000FB71FB792F2BEED90023FB7106E0FB7982
:101480001846FFF7BBFFFB790133FB71FB79082B93
:10149000F5D9062200211448FEF7D2FE1348FFF7C3
:1014A000E3F9034607211846FFF7B4F90F48FFF7A1
:1014B000DBF903461846FFF7E4F94FF4BE70FFF777
:1014C0002AFA4FF00040FFF74FFA054B012283F84C
:1014D0005B20074B3B603B6818460837BD4680BD24
:1014E0005C0000200500AD0BB10000200060004052
:1014F0000000AD0B80B400AF064B93F85B30002BBF
:1015000014BF01230023DBB21846BD465DF8047BFF
:10151000704700BF5C00002080B582B000AF0023A0
:101520007B601BE07868FFF74AFD0346002B12D072
:101530007868FFF7F3FD0346002B03D0786800F0CE
:101540006BF808E07868FFF73BFE0346002B02D0FB
:10155000786800F099FA7B6801337B607B682F2BF9
:10156000E0D9044B002283F85B2000BF0837BD465A
:1015700080BD00BF5C00002080B584B000AF786003
:101580003960224BFB607868FFF7AFFD0346002B04
:1015900002D01F4BFB6034E03B689B78002B18D0D7
:1015A000012200217868FFF7EFFE0346FB7297F9EE
:1015B0000B30B3F1FF3F09D097F90B003B681A7865
:1015C0003B685B787968FFF7CDFA05E0114BFB606B
:1015D00002E07868FFF736FEFB680C4A934210D1B0
:1015E0003B685B78012B03D17868FFF7F5FB02E0DD
:1015F0007868FFF706FC7868FFF76CFB7868FFF700
:1016000045FEFB6818461037BD4680BD0000AD0B97
:101610000500AD0B0200AD0B80B582B000AF786065
:101620007868FFF793FD0346002B0ED07868FFF72C
:101630005DFE0346DBB21846FFF7E0FE7868FFF771
:1016400055FE03461846FFF7EDFA7868FFF70CFEE3
:101650007868FFF737FE0346002B05D07868FFF760
:101660005FFB7868FFF720FE00BF0837BD4680BDEE
:1016700080B582B000AF78607868FFF7ADFB00BF3F
:101680000837BD4680BD80B582B000AF786078680D
:10169000FFF7B7FB00BF0837BD4680BD80B582B0FD
:1016A00000AF78607868FFF7C1FB00BF0837BD4620
:1016B00080BD80B582B000AF7860064A7B68134475
:1016C000243393F900301846FFF716FA00BF0837A5
:1016D000BD4680BD5C00002080B582B000AF786060
:1016E000064A7B681344243393F900301846FFF709
:1016F0001FFA00BF0837BD4680BD00BF5C00002058
:1017000080B582B000AF78607868FFF7EFFD0346E0
:10171000DBB29B00DBB218460837BD4680BD80B502
:1017200084B000AF78607868FFF7EAFF0346FB7388
:10173000FB7B1846FFF7CBF8034618461037BD462B
:1017400080BD80B582B000AF78607868FFF7CEFDCD
:101750000346DBB20C33DBB29B00DBB21846083722
:10176000BD4680BD80B584B000AF78607868FFF773
:10177000E8FF0346FB73FB7B1846FFF7A8F8034618
:1017800018461037BD4680BD80B582B000AF786086
:101790007868FFF7ABFD0346DBB21833DBB29B0082
:1017A000DBB218460837BD4680BD80B584B000AFB7
:1017B00078607868FFF7E8FF0346FB73FB7B184609
:1017C000FFF785F8034618461037BD4680BD80B543
:1017D00084B000AF78600B46FB70FB78002B14BF21
:1017E00001230023DBB2FB73074A7B6813442433D5
:1017F00093F900301A46FB7B19461046FFF7F0F9C3
:1018000000BF1037BD4680BD5C00002080B584B0AD
:1018100000AF78607868FFF769FD0346DBB29B0094
:10182000FB73FB7B1846FFF73FF800BF1037BD4640
:1018300080BD80B584B000AF78607868FFF756FD52
:101840000346DBB20C33DBB29B00FB73FB7B184619
:10185000FFF72AF800BF1037BD4680BD80B584B0C1
:1018600000AF78607868FFF741FD0346DBB21833BC
:10187000DBB29B00FB73FB7B1846FFF715F800BF3C
:101880001037BD4680BD80B586B000AFF860B96046
:101890007A60334B7B61F868FFF792FC0346002BBC
:1018A00002D0304B7B6156E0BB689B78C3F34003AA
:1018B000DBB21A467968F868FFF766FD0346FB74E9
:1018C00097F91330B3F1FF3F43D0BB689B78C3F364
:1018D0008003DBB283F00103DBB2002B13D0BB68C3
:1018E0009B7803F00103DBB2002B03D0F868FFF70D
:1018F00029FA05E0BB685B781946F868FFF7FCF940
:10190000F868FFF7C3FCBB689B7803F00203DBB207
:10191000002B08D097F91300BB681B781A46F968AA
:10192000FFF788F817E097F91330083B0E4A134485
:1019300093F95410BB681B789B015AB297F9133086
:10194000083B0A4351B2084A13440A4683F854201C
:1019500001E0064B7B617B6918461837BD4680BDA8
:101960000000AD0B0500AD0B5C0000200200AD0BCC
:1019700080B588B000AF78600B46FB707868FFF7E1
:1019800007FC0346002B24D07868FFF7AFFC034622
:10199000083B1846FFF7E2FC0346FB73FB7B032B77
:1019A0000AD17868FFF765FA0346002B01D00323BC
:1019B00000E00223FB7706E0FB7B012B01D1022331
:1019C00000E00323FB77FB7F19467868FFF7D7F920
:1019D0002DE07868FFF7BAFB0346002B27D0786824
:1019E000FFF784FC0346BB61BB699BB240339BB2EB
:1019F0009B00FB82BB691846FEF7E8FFFB8A18468E
:101A0000FEF789FFFB78002B11D07868FFF76EFC9A
:101A100003461846FFF77CFC38613B69002B06D073
:101A20000122BB6902FA03F31846FEF79DFF00BFCF
:101A30002037BD4680BD80B584B000AF786078683F
:101A4000FFF7A6FB0346002B04D000217868FFF7C0
:101A500096F915E07868FFF779FB0346002B0FD065
:101A60007868FFF743FC0346FB60FB681846FEF707
:101A7000C7FF0122FB6802FA03F31846FEF784FF52
:101A800000BF1037BD4680BD80B582B000AF786022
:101A90007868FFF7D0FF7868FFF758FB0346002B04
:101AA00006D07868FFF722FC03461846FFF7BAF81D
:101AB0007868FFF707FC0346002B05D07868FFF72E
:101AC0002FF97868FFF7F0FB7868FFF779FB03469A
:101AD000002B07D07868FFF709FC0346DBB21846F5
:101AE000FFF78CFC7868FFF7BFFB00BF0837BD46E7
:101AF00080BD80B582B000AF78607868FFF7B9F933
:101B00000346002B14BF01230023DBB2184608371D
:101B1000BD4680BD80B582B000AF78607868FFF7C1
:101B200015FB0346002B09D07868FFF7DFFB03465F
:101B30009BB240339BB29B009BB201E04FF4BE735B
:101B400018460837BD4680BD80B584B000AF7860C8
:101B50007868FFF7DFFF0346FB81FB891846FEF735
:101B6000F3FE034618461037BD4680BD80B584B0ED
:101B700000AF78607A6802210020FFF7D2F90023D5
:101B8000FB600BE0FB689B007A6813441B68002B2A
:101B900001D0012306E0FB680133FB60FB68012BE9
:101BA000F0D9002318461037BD4680BD80B586B0F9
:101BB00000AF786000237B6150E02F4A7B691344BB
:101BC000543393F90030B3F1FF3F43D07869FFF706
:101BD000AFFB386179683869FFF71EFA0346002BBE
:101BE00039D07869FFF7BAFB0346FB733869FFF712
:101BF00056F90346BB73BB7B022B01D1032300E0E4
:101C000002237B737B7B19463869FFF7B8F8386984
:101C1000FFF7C0F93869FFF769FB03461846FFF77D
:101C200077FBB860BB68002B15D0FB7B032B0BD078
:101C3000BB7B022B02D1FB7B012B05D0BB7B032B93
:101C400009D1FB7B022B06D1FA7BBB6811463869B0
:101C5000984700E000BF7B6901337B617B69002B03
:101C6000ABD07868FFF782FF0346002BA2D100BFFC
:101C700000BF1837BD4680BD5C00002080B58AB02B
:101C800000AF00237B623B1D00221A605A604FF4B4
:101C90008073FB830123BB6100233B621DE0FB8B50
:101CA0001846FEF724FE0346002B0DD0B869FEF758
:101CB0007BFE0346002B07D0FB8B1846FEF72BFE5E
:101CC0007A6ABB6913437B62BB695B00BB61FB8BB8
:101CD0000433FB833B6A01333B623B6A072BDED94B
:101CE0004FF4BE70FEF703FE0346002B0DD04FF4F9
:101CF000BE70FEF710FE7B6A43F000437B623B1D23
:101D00001A4602210020FFF70CF97B6ADBB2002B98
:101D100027D00123BB6100233B621FE0BA697B6AC5
:101D20001340002B14D0386AFEF7BAFE7861386A87
:101D3000FEF7CCFE0346FB74386AFFF7E9FAF86059
:101D4000FB68002B04D0FA7CFB6811467869984741
:101D5000BB695B00BB613B6A01333B623B6A072B9B
:101D6000DCD97B6A002B03DA3B1D1846FFF71EFF08
:101D700000BF2837BD4680BD80B483B000AF0346A6
:101D8000FB7197F90730002B0BDBFB7903F01F0287
:101D9000074997F907305B09012000FA02F241F880
:101DA000232000BF0C37BD465DF8047B704700BFA1
:101DB00000E100E080B483B000AF0346FB7197F907
:101DC0000730002B12DBFB7903F01F020A4997F959
:101DD00007305B09012000FA02F2203341F823208A
:101DE000BFF34F8F00BFBFF36F8F00BF00BF0C3733
:101DF000BD465DF8047B704700E100E080B483B02D
:101E000000AF0346FB7197F90730002B0CDBFB7921
:101E100003F01F02074997F907305B09012000FA18
:101E200002F2603341F8232000BF0C37BD465DF855
:101E3000047B704700E100E080B483B000AF03464C
:101E40003960FB7197F90730002B0ADB3B68DAB287
:101E50000C4997F907305201D2B20B4483F80023A2
:101E60000AE03B68DAB20849FB7903F00F03043B50
:101E70005201D2B20B441A7600BF0C37BD465DF852
:101E8000047B704700E100E000ED00E080B483B027
:101E900000AF78607B6803F06043B3F1005F0CBF74
:101EA00001230023DBB218460C37BD465DF8047BE6
:101EB000704780B582B000AF0346FB7197F90730D9
:101EC0001846FFF79BFF97F907301846FFF754FFB6
:101ED00000BF0837BD4680BD80B582B000AF034665
:101EE000FB7197F907301846FFF764FF00BF08370A
:101EF000BD4680BD80B483B000AF78600B46FB70F8
:101F0000FB787A68134401221A6000BF0C37BD4683
:101F10005DF8047B704780B485B000AF78600B46F5
:101F20007B807B887A68134400221A607B887A68F9
:101F300013441B68FB60FB6800BF1437BD465DF8A7
:101F4000047B704780B483B000AF78600B467B8021
:101F50007B887A6813441B68002B14BF012300237D
:101F6000DBB218460C37BD465DF8047B704780B481
:101F700083B000AF786039607B683A68C3F80423A7
:101F800000BF0C37BD465DF8047B704780B483B05A
:101F900000AF786039607B683A68C3F8082300BFF7
:101FA0000C37BD465DF8047B704780B483B000AF4A
:101FB00078607B680122C3F8002500BF0C37BD465E
:101FC0005DF8047B704780B483B000AF78607B68B5
:101FD0000022C3F8002500BF0C37BD465DF8047B26
:101FE000704780B485B000AFF860B9607A603B603C
:101FF000FB68BA68C3F86425FB687A68C3F868258B
:10200000FB683A68C3F86025FB68BA69C3F87025B5
:10201000FB68FA69C3F86C2500BF1437BD465DF84C
:10202000047B704780B483B000AF786008461146E7
:102030001A460346FB700B46BB7013467B70FB7859
:10204000002B19D13B7C012B02D13B7F012B11D0FE
:102050003B7C022B10D13B7F002B0BD03B7F022B14
:1020600008D03B7F042B05D03B7F062B02D03B7F63
:10207000082B01D1002328E0FA787B68C3F80425F7
:10208000BA787B68C3F824257A787B68C3F8202562
:102090003A7C7B68C3F81C253A7D7B68C3F8282509
:1020A0003A7F7B68C3F81825BB69002B04D17B6895
:1020B0000022C3F8102507E07B68BA69C3F814252D
:1020C0007B680122C3F81025012318460C37BD4652
:1020D0005DF8047B704780B584B000AFF8607A602B
:1020E0003B600B467B817A89FB68C3F85025796891
:1020F000F86800F01CF87B68002B14BF0123002354
:10210000DBB21A46FB68C3F808253968F86800F0A6
:102110001DF83B68002B14BF01230023DBB21A46D5
:10212000FB68C3F80C2500BF1037BD4680BD80B4E6
:1021300083B000AF786039603A687B68C3F83825AF
:1021400000BF0C37BD465DF8047B704780B483B098
:1021500000AF786039603A687B68C3F8402500BFFB
:102160000C37BD465DF8047B704780B483B000AF88
:1021700078607B681B681F2B02D84FF0A04306E0F5
:102180007B681B6803F01F027B681A60034B1846CC
:102190000C37BD465DF8047B704700BF000300505C
:1021A00080B584B000AF7860084611461A460346F1
:1021B000FB700B46BB7013467B703B1D1846FFF748
:1021C000D4FFF860FA78BB785B001A437B789B00F9
:1021D0001A433B7E1B0242EA03013B7F1B047A68E1
:1021E0001943FB6802F5E07243F8221000BF103774
:1021F000BD4680BD80B584B002AF786000230193F6
:10220000002300930023012201217868FFF7C8FF13
:1022100000BF0837BD4680BD80B584B002AF78608E
:102220000B46FB70FB7800220192002200920022F4
:1022300000217868FFF7B4FF00BF0837BD4680BDB6
:1022400080B588B002AF78607B689B79002B0AD19B
:102250007B681B781846FFF7CDFF7B685B781846D4
:10226000FFF7C8FF0BE07B681B7800211846FFF7DB
:10227000D3FF7B685B7800211846FFF7CDFF7B68B2
:102280009B78FF2B06D07B689B787B617869FFF792
:10229000B1FF02E04FF0FF337B617B68DB78FF2BFF
:1022A00006D07B68DB783B613869FFF7A3FF02E06B
:1022B0004FF0FF333B617B681B79FF2B07D07B68B6
:1022C0001B79FB600021F868FFF7A6FF02E04FF0E2
:1022D000FF33FB607B681B7819467B685B781A4686
:1022E000FB6801933B6900937B690348FFF779FE24
:1022F00000BF1837BD4680BD00500240F0B589B020
:1023000004AF78603960204B1B79002B03D01F4B42
:10231000FB60FB6834E07B689C797B68DD797B68D7
:102320001E7A7B685B7A7A68927A7968C96878687D
:10233000007C039002910192009333462A46214685
:102340001348FFF76FFE034683F00103DBB2002B57
:1023500003D0104BFB60FB6812E07868FFF770FF5A
:10236000094A3B6813607B685B7919462520FFF7B3
:1023700063FD2520FFF79DFD034B01221A71064BDB
:1023800018461437BD46F0BDB80000200500AD0B5F
:10239000005002400400AD0B0000AD0B80B582B0D0
:1023A00002AF00F033F92520FFF796FD4FF0FF3321
:1023B00001934FF0FF3300934FF0FF334FF0FF32A4
:1023C0004FF0FF310448FFF70CFE044B00221A7156
:1023D00000BFBD4680BD00BF00500240B8000020D5
:1023E00080B584B000AF78600B467B8013467B706D
:1023F0004C4B1B79012B03D04B4BFB60FB688CE0F3
:102400007B681B68002B0AD07B681B681846FFF7A7
:102410003DFD034683F00103DBB2002B0ED17B6848
:102420005B68002B0ED07B685B681846FFF72EFDBB
:10243000034683F00103DBB2002B03D03B4BFB6070
:10244000FB686AE07B681B68002B14BF0123002334
:10245000D9B2344A537961F3000353717B685B68E6
:10246000002B14BF01230023D9B22E4A537961F304
:10247000410353712B4A53796FF382035371294AF5
:1024800053796FF3C3035371264A53796FF30413DF
:102490005371244A7B88D380224B7A68083392E8B0
:1024A000030083E803001F4B00221A611D4B00222A
:1024B0005A611C4BD9881B4B9A681A4BDB681C4825
:1024C000FFF709FE1A48FFF770FD164B02221A713A
:1024D0004FF482711648FFF71EFD4FF48A711448BD
:1024E000FFF719FD4FF484711148FFF714FD0D4BF0
:1024F0005B795B0003F002020A4B5B791B0103F07E
:102500002003134343F0040319460948FFF72FFD46
:1025100000210748FFF7EEFC064B18461037BD4672
:1025200080BD00BFB80000200500AD0B0A00AD0B58
:10253000005002400000AD0B80B584B000AF786061
:102540002D4B5B79C3F30013DBB283F00103DBB2E5
:10255000002B03D0294BFB60FB6848E07B681B68BD
:10256000002B0AD07B681B681846FFF78FFC0346D8
:1025700083F00103DBB2002B0ED17B685B68002B7C
:102580000ED07B685B681846FFF780FC034683F03B
:102590000103DBB2002B03D0194BFB60FB6826E084
:1025A000154B5B7903F00203DBB2002B05D07B688F
:1025B0005B6819461348FFF7C9FD0F4B5B7903F0C1
:1025C0000103DBB2002B05D07B681B6819460D4860
:1025D000FFF7ADFD084B7A68083392E8030083E803
:1025E0000300054A53796FF304135371064B1846E1
:1025F0001037BD4680BD00BFB80000200500AD0B00
:102600000A00AD0B005002400000AD0B80B500AFDA
:102610000A4A53796FF30413537122210848FFF7D4
:10262000B5FC04210648FFF765FC064B01221A6041
:10263000054B01221A6000BF80BD00BFB80000201A
:1026400000500240385002403C50024080B582B0F9
:1026500000AF4FF48A717648FFF774FC0346002BF5
:102660001CD04FF48A717248FFF755FC714A5379B8
:1026700043F0080353716F4B5B7903F00203DBB245
:10268000002B0BD06B4B5B7903F01003DBB2002BFC
:1026900004D0684A537943F0200353714FF4827198
:1026A0006348FFF74FFC0346002B1CD04FF48271A8
:1026B0005F48FFF730FC5F4A537943F004035371DE
:1026C0005C4B5B7903F00103DBB2002B0BD0594B61
:1026D0005B7903F01003DBB2002B04D0554A537929
:1026E00043F0200353714FF484715148FFF72AFCE3
:1026F0000346002B19D04FF484714D48FFF70BFCB3
:1027000004214B48FFF742FC4948FFF75CFC494B6A
:102710001B68002148489847464B1B6800214748E2
:102720009847444B01221A717EE0424B5B7903F0DB
:102730000203DBB2002B14D03E4B5B7903F00103A4
:10274000DBB2002B0DD03B4B5B7903F00803DBB20F
:10275000002B06D0374B5B7903F00403DBB2002B70
:1027600021D1344B5B79C3F30003DBB283F0010367
:10277000DBB2002B06D02F4B5B7903F00803DBB2F2
:10278000002B10D12B4B5B79C3F34003DBB283F0FA
:102790000103DBB2002B47D0264B5B7903F0040327
:1027A000DBB2002B40D0234A53796FF3C30353713C
:1027B000204A53796FF3820353711E4B5B7903F008
:1027C0002003DBB2002B0FD01A4A53796FF3451365
:1027D0005371184A537943F010035371154B1B681A
:1027E0000121002098471FE0124A3B46103292E830
:1027F000030083E803000F4B0E4A1033083292E8BF
:10280000030083E803000B4B00229A60094B00226F
:10281000DA60084A537943F010035371054B1B6883
:102820003A4601211046984700BF0837BD4680BD93
:1028300000500240B8000020C8000020C000002066
:1028400080B483B000AF0346FB7197F90730002BCB
:102850000BDBFB7903F01F02074997F907305B098F
:10286000012000FA02F241F8232000BF0C37BD46D8
:102870005DF8047B704700BF00E100E080B483B0E6
:1028800000AF0346FB7197F90730002B12DBFB7991
:1028900003F01F020A4997F907305B09012000FA8B
:1028A00002F2203341F82320BFF34F8F00BFBFF364
:1028B0006F8F00BF00BF0C37BD465DF8047B7047CB
:1028C00000E100E080B483B000AF0346FB7197F9EC
:1028D0000730002B0CDBFB7903F01F02074997F947
:1028E00007305B09012000FA02F2603341F823202F
:1028F00000BF0C37BD465DF8047B704700E100E087
:1029000080B483B000AF03463960FB7197F907309C
:10291000002B0ADB3B68DAB20C4997F90730520109
:10292000D2B20B4483F800230AE03B68DAB20849CC
:10293000FB7903F00F03043B5201D2B20B441A7629
:1029400000BF0C37BD465DF8047B704700E100E036
:1029500000ED00E080B582B000AF0346FB7197F94F
:1029600007301846FFF7AEFF97F907301846FFF714
:1029700067FF00BF0837BD4680BD80B582B000AF9D
:102980000346FB7197F907301846FFF777FF00BF42
:102990000837BD4680BD80B582B000AF0346FB71ED
:1029A00097F907301846FFF78DFF00BF0837BD467F
:1029B00080BD80B483B000AF0346FB71FB7903F1A7
:1029C000804303F5A04301221A6000BF0C37BD46C7
:1029D0005DF8047B704780B483B000AF0346FB8092
:1029E000FB8803F1804303F5A04300221A60BFF384
:1029F0004F8F00BF00BF0C37BD465DF8047B7047AA
:102A000080B483B000AF0346FB80FB8803F18043B2
:102A100003F5A0431B68002B14BF01230023DBB286
:102A200018460C37BD465DF8047B704780B483B010
:102A300000AF7860044A7B68C2F8043300BF0C37EB
:102A4000BD465DF8047B70470050004080B483B001
:102A500000AF7860074BD3F804237B681340002B4A
:102A600014BF01230023DBB218460C37BD465DF8C6
:102A7000047B70470050004080B483B000AF7860A2
:102A8000044A7B68C2F8083300BF0C37BD465DF8C6
:102A9000047B70470050004080B400AF034BD3F874
:102AA00004341846BD465DF8047B70470050004072
:102AB00080B483B000AF7860044A7B68C2F8043405
:102AC00000BF0C37BD465DF8047B704700500040E6
:102AD00080B400AF034BD3F80C341846BD465DF804
:102AE000047B70470050004080B483B000AF786032
:102AF000044A7B68C2F80C3400BF0C37BD465DF851
:102B0000047B70470050004080B400AF054BD3F801
:102B10002034DBB203F00103DBB21846BD465DF89A
:102B2000047B70470050004080B400AF044BD3F8E2
:102B30003C34DBB21846BD465DF8047B704700BFED
:102B40000050004080B483B000AF7860054A7B68D5
:102B5000C3F31303C2F8083500BF0C37BD465DF858
:102B6000047B70470050004080B483B000AF034640
:102B7000FB71054AFB79C2F80C3500BF0C37BD4626
:102B80005DF8047B704700BF0050004080B400AF88
:102B9000034BD3F810351846BD465DF8047B7047EB
:102BA0000050004080B483B000AF78600B467B805B
:102BB000074A7B68C2F810357B88054AC3F30803CF
:102BC000C2F8143500BF0C37BD465DF8047B704772
:102BD0000050004080B400AF054BD3F81C359BB2C9
:102BE000C3F30B039BB21846BD465DF8047B7047E8
:102BF0000050004080B483B000AF0346FB80FB88E8
:102C0000054AC3F30B03C2F81C3500BF0C37BD46A1
:102C10005DF8047B704700BF0050004080B485B071
:102C200000AF0346FB710B4BD3F824359BB2C3F3C3
:102C30000B03FB81FB79002B01D0102300E0002364
:102C4000FA89D31A9BB218461437BD465DF8047B47
:102C5000704700BF0050004080B485B000AF78607E
:102C60000B46FB70FB78C02B01D0FB7800E04023C3
:102C7000FB73FB7B002B28D0FB7B802B12D17B6866
:102C80001B781A047B6801331B781B0213437A6894
:102C90000232127811461F4A0B43C2F898357B68FE
:102CA00003337B607B681B781A047B6801331B78D5
:102CB0001B0213437A68023212781146154A0B43FD
:102CC000C2F894357B6803337B607B681B781A06F7
:102CD0007B6801331B781B041A437B6802331B7823
:102CE0001B0213437A68033212781146094A0B43D8
:102CF000C2F89035074BD3F8A03523F0C002FB7B18
:102D000004491343C1F8A03500BF1437BD465DF830
:102D1000047B70470050004080B400AF064BD3F8EE
:102D20009C35054A23F00103C2F89C3500BFBD461F
:102D30005DF8047B704700BF0050004080B400AFD6
:102D4000064BD3F89C35054A43F00103C2F89C3585
:102D500000BFBD465DF8047B704700BF00500040D7
:102D600080B483B000AF0346FB71084BD3F8A035A5
:102D700023F01F02FB7905491343C1F8A03500BFBA
:102D80000C37BD465DF8047B704700BF0050004023
:102D900080B483B000AF0346FB71084BD3F8A43571
:102DA00023F06002FB795B0104491343C1F8A435A9
:102DB00000BF0C37BD465DF8047B704700500040F3
:102DC00080B483B000AF78607B68D3F81035DBB295
:102DD00018460C37BD465DF8047B70472DE9F003BB
:102DE00086B000AF78600B46FB70FB787B617B6838
:102DF0000022984691464FF000024FF000034FEA40
:102E0000091343EA18734FEA08127969C1F12006E1
:102E1000A1F1200022FA01F403FA06F6344323FA62
:102E200000F0044323FA01F5C7E90245BB681846E0
:102E30001837BD46BDE8F003704780B582B000AFDB
:102E4000786039607B681B681846FFF7B9FF034656
:102E500019463868FFF7C2FF034618460837BD46D3
:102E600080BD80B500AF0320FFF77EFE0420FFF792
:102E700077FF00BF80BD80B582B000AF0346FB7115
:102E8000FB79002B04D04FF48050FFF75BFE04E089
:102E9000044BDB681846FFF755FE00BF0837BD46F8
:102EA00080BD00BFD000002080B586B000AF0346D3
:102EB000FB71334B1B7A002B58D1FB79DBB2032B10
:102EC00008D100F07CF90346002B01D0022300E07A
:102ED0000123FB71FB79DBB2012B28D0022B47D1F8
:102EE000284B5B7ADBB283F00103DBB2002B41D0CD
:102EF000234B00225A72224B00229A72204B01224D
:102F00001A721F4807F068F81D4806F0F5FF1D4BC0
:102F100001225A720223BB601A4B5B68002B29D036
:102F2000184B5B6807F108021046984722E0154BE2
:102F30005B7ADBB2002B1FD00820FFF73AFD4FF47D
:102F40008F60FFF799FD0F4B00225A720423BB607C
:102F50000120FFF790FF0B4B5B68002B0CD0094B57
:102F60005B6807F108021046984705E000BF04E0DF
:102F700000BF02E000BF00E000BF1837BD4680BDC3
:102F800000000020D000002080B500AF114B1B785E
:102F9000002B09D00F4B00221A700F4B00221A721F
:102FA0000320FFF781FF13E00B4B5B7A002B0FD060
:102FB000094B9B7A002B0BD00020FFF7FAFC054B46
:102FC00001221A70044807F007F8034806F094FF3E
:102FD00080BD00BFE00000200000002080B582B06E
:102FE00000AF03463960FB80FB88B3F5A07F08D1B2
:102FF000064B01229A72054806F09AFFFFF7C4FFBC
:1030000000E000BF0837BD4680BD00BF00000020C3
:1030100080B586B002AF3B1D00221A605A600423BF
:103020003B710723FB713B1D0E4A19460E4806F003
:10303000C0FEF860FB680D4A934201D0FB680DE0CA
:103040004FF47A710848FFF7F8FE02460123009317
:1030500001230021044807F02DF8FB6818461037BB
:10306000BD4680BDDD2F0000000000200000AD0B3C
:1030700080B483B000AF0346FB71FB790A2B0AD002
:103080000A2B0ADC042B02D0072B02D005E0002318
:1030900004E0402302E0802300E0402318460C3780
:1030A000BD465DF8047B704780B582B000AF7860A4
:1030B000054B1A687B6813401846FFF7B7FC00BF42
:1030C0000837BD4680BD00BFD000002080B586B067
:1030D00000AF78601D4B7B611D4B1B7A002B01D02C
:1030E0001C4B2FE01A4B7A6892E8030083E8030038
:1030F000FFF7B7FE0520FFF74EFC07210520FFF77D
:10310000FFFB0520FFF726FCFFF782FF78617B6954
:103110000E4A934215D107F10C030721184600F01F
:1031200055F9786107F10C03C0211846FFF794FDAB
:10313000074B01221A72064B4FF48052DA607B690A
:1031400000E07B6918461837BD4680BD0000AD0B16
:10315000D00000200500AD0B80B500AF00F024F8D2
:103160000520FFF70AFC0520FFF715FC034806F0D1
:1031700093FE034B00221A7200BF80BD00000020A6
:10318000D000002080B500AF0120FFF791FC08209F
:10319000FFF70FFC0348FFF749FC0420FFF746FC4C
:1031A00000BF80BD8200080080B500AF4FF0FF3047
:1031B000FFF762FC0420FFF7FCFB00BF80BD80B579
:1031C00082B000AFFFF7B0FC03467B607B6803F082
:1031D0000103002B06D17B6803F00203002B01D111
:1031E000002300E0012318460837BD4680BD80B5A6
:1031F00082B000AF78607B685A687B681B689BB2BE
:1032000019461046FFF7CEFC4FF48C60FFF74CFFD9
:103210001C20FFF7CEFB00BF0837BD4680BD80B540
:1032200084B000AF78600B46FB701F4BFB607B687F
:103230001B68002B01D11D4B31E04FF48670FFF766
:10324000DFFB0346002B08D00820FFF7FFFB0346F7
:10325000002B02D0164BFB6020E0164B01221A60B7
:103260007B685A687B681B689BB219461046FFF75B
:1032700099FC7B681B689BB2DB009BB21846FFF78A
:10328000B9FCFB781846FFF76FFC0020FFF7F3FD51
:103290001820FFF709FF0C20FFF78BFBFB6818468F
:1032A0001037BD4680BD00BF0000AD0B0600AD0B62
:1032B0000B00AD0B1050004080B582B000AF03464C
:1032C000FB71FB79002B05D1064B01225A72FFF7E7
:1032D0005BFE03E0FB791846FFF76BFB0837BD4642
:1032E00080BD00BF0000002080B582B000AF034663
:1032F000FB71FB79292B0CD1FFF706FC0346012B50
:1033000003D12820FFF755FB07E02420FFF751FBEE
:1033100003E0FB791846FFF74CFB0120FFF7ABFDFC
:103320004FF48F60FFF7A8FB00BF0837BD4680BD94
:1033300080B586B000AF78607B681B78022B28D000
:10334000022B35DC002B02D0012B16D030E07B683D
:103350005B683B61194BFB60FB6801333A699A4239
:1033600001D9174B26E03A69FB68934228BF134600
:103370003B61144A3B69D3601BE07B681B79032BDC
:1033800001D90F4B16E07B681B791846FFF700FD4B
:103390000FE07B681B7A1846FFF76AFE0346FB7551
:1033A0007B685B68FA7D11461846FFF755FC00E024
:1033B00000BF054B18461837BD4680BDFFFF0F0004
:1033C0000400AD0BD00000200000AD0B80B487B02E
:1033D00000AF786039603B68042B07D03B68072B4F
:1033E00004D03B680A2B01D0324B5CE04FF0805395
:1033F000D3F850347B614FF08053D3F854343B61A1
:103400004FF08053D3F85834FB607B69DAB27B68A5
:103410001A707B691A0A7B680133D2B21A707B6911
:103420001A0C7B680233D2B21A707B6803333A6994
:10343000D2B21A703B68042B34D03B691A0A7B68FD
:103440000433D2B21A703B691A0C7B680533D2B2CE
:103450001A703B691A0E7B680633D2B21A703B6849
:103460000A2B11D17B680733FA68D2B21A70FB6855
:103470001A0A7B680833D2B21A70FB681A0C7B6890
:103480000933D2B21A700DE07B6803331B78882BA6
:1034900008D17B6803331A787B68033342F011024A
:1034A000D2B21A70044B18461C37BD465DF8047B37
:1034B000704700BF0600AD0B0000AD0B80B500AF3C
:1034C000FFF72AFC00BF80BD80B500AFFFF736FCD8
:1034D00000BF80BD80B596B000AF002387F857309D
:1034E0004FF48270FFF78CFA0346002B0CD00220B9
:1034F000FFF7ACFA0346002B06D04FF48270FFF7BB
:103500006AFA022387F857304FF48470FFF778FA8D
:103510000346002B12D00420FFF798FA0346002B35
:103520000CD04FF48470FFF756FA97F85730002B01
:1035300001D1012300E0032387F8573097F8573073
:10354000002B04D097F857301846FFF7ADFC4FF426
:103550008C70FFF755FA0346002B48D04020FFF748
:1035600075FA0346002B42D04FF48C70FFF733FA04
:1035700007F1400300221A605A609A60DA60402323
:103580003B6400237B64FFF701FB0346FB640120DF
:10359000FFF744FB0346DB089BB2BB644FF4947017
:1035A000FFF72EFA0346002B13D04FF48060FFF78D
:1035B0004DFA0346002B0CD0FFF78AFA034603F0BE
:1035C0000D037B644FF49470FFF705FA0D20FFF7AD
:1035D0008BFA6B4B5B68002B05D0694B5B6807F17E
:1035E0004002104698474FF48670FFF7F4F94FF405
:1035F0008870FFF705FA0346002B1FD01020FFF755
:1036000025FA0346002B19D04FF48870FFF7E3F931
:1036100007F1300300221A605A609A60DA601023C2
:103620003B631820FFF728FA554B5B68002B05D049
:10363000534B5B6807F13002104698474FF4A67071
:10364000FFF7DEF90346002B37D04FF40020FFF7D9
:10365000FDF90346002B30D04FF4A670FFF7BBF9FD
:103660004FF48C70FFF7B7F94FF49470FFF7B3F98C
:103670004FF48670FFF7AFF94FF48870FFF7ABF99E
:103680000020FFF7F8FB0D20FFF72EFA0120FFF7CF
:103690000FFA07F1200300221A605A609A60DA607C
:1036A0004FF400233B62364B5B68002B05D0344B54
:1036B0005B6807F12002104698474FF48E70FFF7C1
:1036C0009FF90346002B30D08020FFF7BFF9034657
:1036D000002B2AD0FFF7E0F938654FF48E70FFF722
:1036E0007AF907F1100300221A605A609A60DA60D2
:1036F00080233B613B6D03F00103002B0ED00120C2
:10370000FFF7D6F900233B751D4B5B68002B05D0F6
:103710001B4B5B6807F11002104698473B6D23F086
:1037200001033B650120FFF7C3F94FF48670FFF7F3
:1037300067F90346002B1ED00820FFF787F90346E0
:10374000002B18D04FF48670FFF745F90C4B5B68DF
:10375000002B10D008233B60FFF718FA0346BB602C
:10376000FFF738FA0346DB089BB27B60044B5B68CB
:103770003A461046984700BF5837BD4680BD00BF47
:10378000D000002080B483B000AF0346FB7197F9EE
:103790000730002B0BDBFB7903F01F02074997F979
:1037A00007305B09012000FA02F241F8232000BF34
:1037B0000C37BD465DF8047B704700BF00E100E0B8
:1037C00080B483B000AF0346FB7197F90730002B3C
:1037D00012DBFB7903F01F020A4997F907305B09F6
:1037E000012000FA02F2203341F82320BFF34F8F6B
:1037F00000BFBFF36F8F00BF00BF0C37BD465DF841
:10380000047B704700E100E080B483B000AF034662
:10381000FB7197F90730002B0CDBFB7903F01F02DB
:10382000074997F907305B09012000FA02F240339B
:1038300041F8232000BF0C37BD465DF8047B70477C
:1038400000E100E080B483B000AF0346FB7197F95C
:103850000730002B0CDBFB7903F01F02074997F9B7
:1038600007305B09012000FA02F2603341F823209F
:1038700000BF0C37BD465DF8047B704700E100E0F7
:1038800080B483B000AF03463960FB7197F907300D
:10389000002B0ADB3B68DAB20C4997F9073052017A
:1038A000D2B20B4483F800230AE03B68DAB208493D
:1038B000FB7903F00F03043B5201D2B20B441A769A
:1038C00000BF0C37BD465DF8047B704700E100E0A7
:1038D00000ED00E080B582B000AF0346FB7197F9C0
:1038E00007301846FFF7AEFF97F907301846FFF785
:1038F00049FF00BF0837BD4680BD80B582B000AF2C
:103900000346FB7197F907301846FFF759FF00BFD0
:103910000837BD4680BD80B582B000AF0346FB715D
:1039200097F907301846FFF76FFF00BF0837BD460D
:1039300080BD80B483B000AF0346FB71FB7903F117
:10394000804303F5E83301221A6000BF0C37BD46FF
:103950005DF8047B704780B483B000AF0346FB8002
:10396000FB8803F1804303F5E8331B68002B14BF89
:1039700001230023DBB218460C37BD465DF8047BFB
:10398000704780B485B000AF0346FB80FB8803F12D
:10399000804303F5E83300221A60FB8803F180437B
:1039A00003F5E8331B68FB60FB6800BF1437BD46B6
:1039B0005DF8047B704780B483B000AF7860054A3F
:1039C0007B68C2F8043300BF0C37BD465DF8047B4A
:1039D000704700BF00D0014080B400AF044B01220B
:1039E000C3F8002500BFBD465DF8047B704700BFEB
:1039F00000D0014080B400AF044B0022C3F8002582
:103A000000BFBD465DF8047B704700BF00D0014099
:103A100080B483B000AF03460A46FB711346BB7106
:103A2000FB7903F00102BB795B0003F00203054957
:103A30001343C1F8083500BF0C37BD465DF8047B61
:103A4000704700BF00D0014080B483B000AF786001
:103A5000044A7B68C2F8043500BF0C37BD465DF8E8
:103A6000047B704700D0014080B483B000AF786021
:103A70003960074A7B68C2F84035054A3B68C2F89E
:103A8000443500BF0C37BD465DF8047B704700BF6E
:103A900000D0014080B400AF074B4FF00042C3F8A4
:103AA0004025054B4FF00042C3F8442500BFBD46FA
:103AB0005DF8047B704700BF00D0014080B483B044
:103AC00000AF03460A46FB711346BB71064AFB79F9
:103AD000C2F81835044ABB79C2F81C3500BF0C3750
:103AE000BD465DF8047B704700D0014080B483B0D0
:103AF00000AF78603960074A7B68C2F86035054AD4
:103B00003B68C2F8643500BF0C37BD465DF8047BE6
:103B1000704700BF00D0014080B483B000AF786030
:103B20007B681B681F2B02D84FF0A04306E07B6820
:103B30001B6803F01F027B681A60034B18460C37A2
:103B4000BD465DF8047B70470003005080B584B02B
:103B500000AF7860084611461A460346FB700B46D4
:103B6000BB7013467B703B1D1846FFF7D5FFF8600E
:103B7000FA78BB785B001A437B789B001A433B7E44
:103B80001B0242EA03013B7F1B047A681943FB686E
:103B900002F5E07243F8221000BF1037BD4680BD29
:103BA00080B584B002AF78600023019300230093B6
:103BB0000023012201217868FFF7C8FF00BF083702
:103BC000BD4680BD80B584B002AF78600B46FB7007
:103BD000FB780022019200220092002200217868E6
:103BE000FFF7B4FF00BF0837BD4680BD80B584B085
:103BF00000AF78603B1D1846FFF78EFFF8607B68CA
:103C0000012202FA03F31946F86800F004F800BF35
:103C10001037BD4680BD80B483B000AF7860396096
:103C20007B683A68C3F80C2500BF0C37BD465DF8C9
:103C3000047B704780B58EB000AF4FF48070FFF703
:103C40008AFE0346002B69D04FF48070FFF799FE7F
:103C50006B4B9B7C87F83630694B9B7C03F00103F0
:103C6000002B0CBF01230023DBB287F8353097F817
:103C70003530634A9B0013445B68002B04D1604BD2
:103C80005B7CDBB2022B2CD1002387F830305C4BFD
:103C90000022DA745A4B5B7CDBB2022B05D1002385
:103CA000FB62574B01225A7411E097F83630544AA0
:103CB0009B0013445B68FB6297F83630504A9B00C8
:103CC000134400225A604E4A97F83530937401230A
:103CD00087F828304A4B1B6807F12802104698479E
:103CE00013E0474BDB7C002B0FD100233B770023F5
:103CF0003B62012387F82430414B0122DA74404BA8
:103D00001B6807F11C02104698473D4B5B7CDBB2F9
:103D1000022B5DD13A4B01225A7459E04FF4827064
:103D2000FFF719FE0346002B52D04FF48270FFF7C5
:103D300028FEFFF75FFE324B00225A7400233B76C9
:103D400000233B742E4B9B7C2D4A9B0013445B68E5
:103D5000002B13D02A4B9B7C294A9B0013445B68A1
:103D60007B61274B9B7C264A9B00134400225A60B0
:103D7000234B1B6807F1100210469847204B9B7C91
:103D800003F00103002B0CBF01230023DBB287F8F3
:103D9000373097F837301A4A9B0013445B68002B82
:103DA00013D097F83730164A9B0013445B687B6149
:103DB00097F83730124A9B00134400225A60104B88
:103DC0001B6807F11002104698470D4B00229A74A9
:103DD0000B4B1B7DDBB2002B0DD001233B7100236D
:103DE000BB6000233B73064B00221A75044B1B6813
:103DF0003A1D1046984700BF3837BD4680BD00BF0A
:103E0000E400002080B584B000AF786039603B4B9F
:103E10001B7C002B03D03A4BFB60FB6869E07B689E
:103E20001B7A502B03D87B685B7A502B03D9354B18
:103E3000FB60FB685DE0314B00225A602F4B002293
:103E40009A602E4B00229A742C4B0022DA742B4A73
:103E50003B681360294B00225A747B685B681846E4
:103E6000FFF7F2FD7B681A787B685B78194610468D
:103E7000FFF7CEFD7B681A7A7B685B7A194610469D
:103E8000FFF71CFE7B689B781846FFF789FE7B686E
:103E90009B781846FFF7AAFE7B68DB78002118465E
:103EA000FFF790FE7B689B781A467B68DB781946A3
:103EB0001046FFF7D9FD4FF48070FFF762FD4FF415
:103EC0008470FFF75EFD4FF48270FFF75AFD032008
:103ED000FFF771FD7B689B7A19461D20FFF7D0FC28
:103EE0001D20FFF7F7FC054B01221A74064BFB60FF
:103EF000FB6818461037BD4680BD00BFE4000020B7
:103F00000500AD0B0400AD0B0000AD0B80B500AF9C
:103F1000FFF770FDFFF7BEFD024B00221A7400BFD1
:103F200080BD00BFE400002080B500AF064B022238
:103F30001A74FFF751FD4FF48070FFF722FD002047
:103F4000FFF7F7FC00BF80BDE400002080B500AFA4
:103F5000034B01221A751D20FFF7DDFC00BF80BD59
:103F6000E400002080B582B000AF0F4B5B7CDBB279
:103F7000002B0CD00C4B5B7CDBB2012B03D10B4B29
:103F80007B607B680BE00A4B7B607B6807E0064B3D
:103F900002225A74FFF7DAFF044B7B607B681846F5
:103FA0000837BD4680BD00BFE40000200000AD0B17
:103FB0000B00AD0B80B584B000AF78600B467B8002
:103FC0002A4B1B7C002B01D1294B4BE0274B5B7C00
:103FD000DBB2032B01D1274B44E07B68002B03D0DD
:103FE000B7F90230002B01DA234B3BE0234BFB6097
:103FF0001D20FFF782FC1D4B9B7C03F00103002B6F
:104000000CBF01230023DBB2FB72184B5B7CDBB2DD
:10401000022B01D10023FB72FB7A144A9B0013444C
:104020005B68002B02D0134BFB6017E0FB7A0F4A52
:104030009B0013447A685A60FB7A0C4A04335B0095
:1040400013447A889A807B8819467868FFF74EFD7A
:10405000064B1B7C022B01D0FFF766FF1D20FFF7EC
:1040600039FCFB6818461037BD4680BDE4000020CF
:104070000500AD0B0B00AD0B0400AD0B0000AD0B4C
:1040800080B582B000AF164B5B7CDBB2012B16D043
:10409000134B5B7CDBB2002B04D0114B5B7CDBB29F
:1040A000022B08D1FFF7A6FC0D4B00225A740D4BD2
:1040B0007B607B680FE00C4B7B607B680BE0084B00
:1040C00001221A74064B03225A740420FFF731FCB4
:1040D000044B7B607B6818460837BD4680BD00BF37
:1040E000E40000200000AD0B0B00AD0B80B483B0EA
:1040F00000AF0346FB7197F90730002B0BDBFB7910
:1041000003F01F02074997F907305B09012000FA05
:1041100002F241F8232000BF0C37BD465DF8047B56
:10412000704700BF00E100E080B483B000AF0346F9
:10413000FB7197F90730002B12DBFB7903F01F02AC
:104140000A4997F907305B09012000FA02F220338F
:1041500041F82320BFF34F8F00BFBFF36F8F00BF25
:1041600000BF0C37BD465DF8047B704700E100E0FE
:1041700080B483B000AF0346FB7197F90730002B82
:104180000CDBFB7903F01F02074997F907305B0945
:10419000012000FA02F2603341F8232000BF0C37FF
:1041A000BD465DF8047B704700E100E080B483B059
:1041B00000AF03463960FB7197F90730002B0ADB2B
:1041C0003B68DAB20C4997F907305201D2B20B447E
:1041D00083F800230AE03B68DAB20849FB7903F070
:1041E0000F03043B5201D2B20B441A7600BF0C37C6
:1041F000BD465DF8047B704700E100E000ED00E0A3
:1042000080B483B000AF78607B681B0B5BB218464C
:104210000C37BD465DF8047B704780B582B000AFB7
:104220000346FB7197F907301846FFF7A1FF97F98E
:1042300007301846FFF75AFF00BF0837BD4680BD5C
:1042400080B483B000AF0346FB71114A97F9073081
:10425000002B00DA1F335B115BB252F8232097F971
:104260000730594203F01F0301F01F0158BF4B42B2
:104270005BB222FA03F303F00103002B14BF012306
:104280000023DBB218460C37BD465DF8047B70474F
:1042900000E100E080B582B000AF0346FB7197F902
:1042A00007301846FFF740FF00BF0837BD4680BD06
:1042B00080B485B000AF0346FB80FB8803F18043E8
:1042C00000221A60FB8803F180431B68FB60FB68D7
:1042D00000BF1437BD465DF8047B704780B483B0DF
:1042E00000AF0346FB80FB8803F180431B68002B73
:1042F00014BF01230023DBB218460C37BD465DF81E
:10430000047B704780B584B000AF0346FB80FB8818
:104310001846FFF7E3FF0346FB73FB7B002B03D03C
:10432000FB881846FFF7C4FFFB7B18461037BD46D5
:1043300080BD80B483B000AF78604FF080427B686E
:10434000C2F8043300BF0C37BD465DF8047B7047EC
:1043500080B400AF4FF08043D3F804331846BD4615
:104360005DF8047B704780B483B000AF78604FF095
:1043700080427B68C2F8083300BF0C37BD465DF849
:10438000047B704780B485B000AF03460A46FB71DA
:104390001346BB714FF08043D3F81035FB60FB68C8
:1043A00023F01F03FB60BB795B00FA79002A01D080
:1043B000012200E000221343FA681343FB604FF030
:1043C0008042FB68C2F8103500BF1437BD465DF867
:1043D000047B704780B485B000AF0346FB714FF09B
:1043E0008043D3F81035FB60FB6823F47063FB60F7
:1043F000FB791B02FA681343FB604FF08042FB68B5
:10440000C2F8103500BF1437BD465DF8047B704715
:1044100080B483B000AF0346FB71FB79002B01D061
:10442000012300E000234FF08042C2F8783500BF3E
:104430000C37BD465DF8047B704780B483B000AF95
:104440000346FB71FB79002B01D0012300E0002320
:104450004FF08042C2F8803500BF0C37BD465DF892
:10446000047B704780B582B000AF0723FB714FF02B
:104470008040FFF7C5FE03461846FFF7E1FE0346FE
:1044800083F00103DBB2002B12D04FF08040FFF726
:10449000B7FE03461A46FB7919461046FFF786FE1B
:1044A0004FF08040FFF7ACFE03461846FFF7B5FE1D
:1044B00000BF0837BD4680BD80B400AF034B1B680A
:1044C0001846BD465DF8047B704700BF0001002020
:1044D00080B400AF034B1B681846BD465DF8047BF3
:1044E000704700BF0801002080B582B000AF78603F
:1044F0000F4B1B78002B01D00E4B15E07B681B780F
:10450000C3F34003DBB21846FFF797FF7B681B78C5
:10451000C3F30003DBB21846FFF77AFFFFF7A2FFF1
:10452000034B01221A70044B18460837BD4680BD64
:10453000FC0000200C00AD0B0000AD0B80B500AFFF
:104540000C4B1B7883F00103DBB2002B07D04FF03C
:104550008040FFF755FE03461846FFF79BFE00F02C
:1045600048F800F099F800F0C7F8034B00221A70E1
:1045700000BF80BD58000020FC00002080B582B044
:1045800000AF786000F035F87B681B68002B03D023
:104590007B681B68024A136000BF0837BD4680BDB8
:1045A0000001002080B582B000AF78607B681B7985
:1045B00019460120FFF7E6FE7B685B791846FFF796
:1045C00009FF054B1B68002B02D00420FFF7B1FE4A
:1045D00000BF0837BD4680BD0001002080B500AF98
:1045E0000E210020FFF7CEFE0420FFF7BCFE00BF27
:1045F00080BD80B400AF044B00221A6000BFBD46EE
:104600005DF8047B704700BF0001002080B582B0D8
:1046100000AF786000F040F87B681B68002B03D087
:104620007B681B68024A136000BF0837BD4680BD27
:104630000401002080B584B000AF78600023FB60E7
:104640007B681B7903F00103DBB2002B07D0FB680A
:1046500043F02003FB604FF48A70FFF729FE7B686C
:104660001B7903F00203DBB2002B07D0FB6843F099
:104670004003FB604FF48C70FFF71AFEF868FFF7F9
:1046800058FE00BF1037BD4680BD80B500AF60202A
:10469000FFF769FE00BF80BD80B400AF034B00226E
:1046A0001A6000BFBD465DF8047B7047040100201E
:1046B00080B582B000AF786000F01EF87B681B68A0
:1046C000002B03D07B681B68024A136000BF0837C9
:1046D000BD4680BD0801002080B500AF4FF460707A
:1046E000FFF727FE00BF80BD80B500AF4FF46070BC
:1046F000FFF739FE00BF80BD80B400AF034B00223E
:104700001A6000BFBD465DF8047B704708010020B9
:1047100080B582B000AFFFF71BFE78607B6803F0C6
:104720000403002B09D04FF48470FFF7EBFD034620
:10473000002B02D02B4B1B6898477B6803F02003AB
:10474000002B0AD04FF48A70FFF7DCFD0346002BE4
:1047500003D0254B1B68002098477B6803F040037B
:10476000002B0AD04FF48C70FFF7CCFD0346002BD2
:1047700003D01D4B1B68012098477B6803F0800322
:10478000002B0AD04FF48E70FFF7BCFD0346002BC0
:1047900003D0164B1B68002098477B6803F4807396
:1047A000002B0AD04FF49070FFF7ACFD0346002BAE
:1047B00003D00E4B1B68012098477B6803F40073FD
:1047C000002B0AD04FF49270FFF79CFD0346002B9C
:1047D00003D0064B1B680220984700BF0837BD4630
:1047E00080BD00BF0001002004010020080100205E
:1047F00080B500AFFFF78CFFFBF79CFF00BF80BDCB
:1048000080B483B000AF0346FB7197F90730002BEB
:104810000BDBFB7903F01F02074997F907305B09AF
:10482000012000FA02F241F8232000BF0C37BD46F8
:104830005DF8047B704700BF00E100E080B483B006
:1048400000AF0346FB7197F90730002B12DBFB79B1
:1048500003F01F020A4997F907305B09012000FAAB
:1048600002F2203341F82320BFF34F8F00BFBFF384
:104870006F8F00BF00BF0C37BD465DF8047B7047EB
:1048800000E100E080B483B000AF0346FB7197F90C
:104890000730002B0CDBFB7903F01F02074997F967
:1048A00007305B09012000FA02F2603341F823204F
:1048B00000BF0C37BD465DF8047B704700E100E0A7
:1048C00080B483B000AF03463960FB7197F90730BD
:1048D000002B0ADB3B68DAB20C4997F9073052012A
:1048E000D2B20B4483F800230AE03B68DAB20849ED
:1048F000FB7903F00F03043B5201D2B20B441A764A
:1049000000BF0C37BD465DF8047B704700E100E056
:1049100000ED00E080B483B000AF78607B681B0BD3
:104920005BB218460C37BD465DF8047B704780B516
:1049300082B000AF0346FB7197F907301846FFF7C6
:10494000A1FF97F907301846FFF75AFF00BF083755
:10495000BD4680BD80B582B000AF0346FB7197F9BC
:1049600007301846FFF76AFF00BF0837BD4680BD15
:1049700080B483B000AF78600B46FB70FB787A6838
:10498000134401221A6000BF0C37BD465DF8047B5A
:10499000704780B483B000AF78600B46FB70FA7844
:1049A0007B68134418460C37BD465DF8047B70479E
:1049B00080B485B000AF78600B467B807B887A68D6
:1049C000134400221A607B887A6813441B68FB60DA
:1049D000FB6800BF1437BD465DF8047B704780B4A8
:1049E00083B000AF78600B467B807B887A68134485
:1049F0001B68002B14BF01230023DBB218460C37C1
:104A0000BD465DF8047B704780B483B000AF78602A
:104A100039607B683A68C3F8002200BF0C37BD4696
:104A20005DF8047B704780B483B000AF7860396074
:104A30007B683A68C3F8002300BF0C37BD465DF8B9
:104A4000047B704780B483B000AF78607B6801223C
:104A5000C3F8002500BF0C37BD465DF8047B7047E6
:104A600080B483B000AF78607B680022C3F8002573
:104A700000BF0C37BD465DF8047B704780B485B03D
:104A800000AF786039600023FB730DE0FB7B9B0077
:104A90003A681344FA7B19687B6802F5AC7243F8F4
:104AA0002210FB7B0133FB73FB7B032BEED900BF92
:104AB00000BF1437BD465DF8047B704780B483B0F7
:104AC00000AF7860084611461A460346FB700B4655
:104AD000BB7013463B80FA787B68C3F80C25BA7824
:104AE0007B68C3F804253A887B68C3F8082500BFB3
:104AF0000C37BD465DF8047B704780B584B000AFCD
:104B0000F8600B467A60FB727B681A68FB7A19467C
:104B1000F86800F019F87B689A88FB7A1946F868FB
:104B200000F026F87B689A68FB7A1946F86800F06E
:104B300035F87B68DA68FB7A1946F86800F043F8C4
:104B400000BF1037BD4680BD80B485B000AFF860AF
:104B50000B467A60FB72FB7A7A68F96829335B014D
:104B60000B441A6000BF1437BD465DF8047B7047E4
:104B700080B483B000AF78600B46FB7013463B8077
:104B8000FB783A88796829335B010B4404331A6057
:104B900000BF0C37BD465DF8047B704780B485B01C
:104BA00000AFF8600B467A60FB72FB7AFA685B0133
:104BB000134403F5A5637A681A6000BF1437BD4635
:104BC0005DF8047B704780B485B000AFF8600B4699
:104BD0007A60FB72FB7AFA685B01134403F22C5390
:104BE0007A681A6000BF1437BD465DF8047B7047D1
:104BF00080B483B000AF78600B46FB701346BB7087
:104C0000FA78BB781B021A437B68C3F8102500BFF3
:104C10000C37BD465DF8047B704780B483B000AFAD
:104C200078600B467B807A887B68C3F8142500BFC8
:104C30000C37BD465DF8047B704780B483B000AF8D
:104C400078607B681B681F2B02D84FF0A04306E0FA
:104C50007B681B6803F01F027B681A60034B1846D1
:104C60000C37BD465DF8047B704700BF0003005061
:104C700080B584B000AF7860084611461A460346F6
:104C8000FB700B46BB7013467B703B1D1846FFF74D
:104C9000D4FFF860FA78BB785B001A437B789B00FE
:104CA0001A433B7E1B0242EA03013B7F1B047A68E6
:104CB0001943FB6802F5E07243F8221000BF103779
:104CC000BD4680BD80B584B002AF786000230193FB
:104CD000002300930023012201217868FFF7C8FF19
:104CE00000BF0837BD4680BD80B584B000AF786096
:104CF0003B1D1846FFF7A1FFF8607B68012202FA0E
:104D000003F31946F86800F019F800BF1037BD46E4
:104D100080BD80B584B000AF78603B1D1846FFF7BA
:104D20008CFFF8607B68012202FA03F31946F868E9
:104D300000F013F800BF1037BD4680BD80B483B0CB
:104D400000AF786039607B683A68C3F8082500BF17
:104D50000C37BD465DF8047B704780B483B000AF6C
:104D6000786039607B683A68C3F80C2500BF0C375F
:104D7000BD465DF8047B704780B588B000AF7860B1
:104D800039600023FB7742E0FB7F3A68D35CBB7756
:104D9000BB7FFF2B30D0BB7F03F08003002B14BF01
:104DA000012300237B77BA7FFB7F22F080029B00E8
:104DB00020333B4443F8142C7B7F002B09D0FB7F2E
:104DC0009B0020333B4453F8143C1846FFF78CFFFC
:104DD00008E0FB7F9B0020333B4453F8143C18460B
:104DE000FFF797FFFB7F9B0020333B4453F8143CB5
:104DF0001846FFF767FF07E0FB7F9B0020333B442B
:104E00004FF0FF3243F8142CFB7F0133FB77FB7F1D
:104E1000032BB9D97B681B6807F10C0211461846B1
:104E2000FFF72CFE00BF2037BD4680BD80B586B0A1
:104E300000AFF860B9607A60FB681B79DB003B4A21
:104E400013447B617B691B79DBB2002B03D0384BA9
:104E50003B613B6966E07B697A681A60B968F8680B
:104E6000FFF78AFFFB681B681846FFF7EBFDFB683E
:104E70001868BB685979BB689A79BB681B89FFF7CA
:104E80001DFEFB681868BB68997ABB68DB7A1A4616
:104E9000FFF7AEFEFB681B6800211846FFF7B4FD64
:104EA000FB681B6800211846FFF7BDFDFB681B6807
:104EB0004FF48E711846FFF77BFDFB681B684FF4BB
:104EC00088711846FFF774FDFB681B684FF48A7100
:104ED0001846FFF76DFDFB681B684FF4827118469A
:104EE000FFF766FD7B691B68002B15D0FB681B680C
:104EF0001846FFF70FFD03461A46BB681B79194693
:104F00001046FFF7DDFCFB681B681846FFF702FD43
:104F100003461846FFF70BFD7B6901221A71054B0A
:104F20003B613B6918461837BD4680BD0C01002027
:104F30000500AD0B0000AD0B80B584B000AF78600C
:104F40007B681B79DB000C4A1344FB607B681B68A1
:104F50001846FFF7DFFC03461846FFF7FBFC7B68AB
:104F60001B681846FFF77CFDFB6800221A7100BF22
:104F70001037BD4680BD00BF0C01002080B586B053
:104F800000AFF860B96011461A460B46FB71134634
:104F9000BB71BB6802221A71BB68FA795A71BB688F
:104FA0001B68002B22D082237B61FB7903F0040372
:104FB000002B03D07B6943F010037B61FB7903F086
:104FC0000803002B03D07B6943F020037B61FB794E
:104FD00003F01003002B03D07B6923F080037B6177
:104FE000FB681B6879691846FFF71DFDFB681B68A5
:104FF0004FF482711846FFF7DBFC97F90730002B5E
:1050000009DAFB681B68BA7911461846FFF7C1FC3C
:1050100038613B6907E0FB681B68BA79114618469E
:10502000FFF7A6FC002318461837BD4680BD80B5A3
:1050300088B000AFF860B9603B601346FB80FB6846
:105040001B79DB00294A1344BB61FB681B68BA6803
:1050500000211846FFF751FDFB681B68BA68012163
:105060001846FFF74AFDFB8803F00103002B14BF2D
:1050700001230023FB75FB681868FB885B089AB264
:10508000FB7D9BB213449BB21946FFF7C6FD3B68FC
:1050900003F00103002B02D01023FB610EE03B68FC
:1050A00003F00203002B07D0FB7D002B01D0082367
:1050B00000E00423FB6101E00023FB61FB681B6847
:1050C000F9691846FFF7A0FC3B68DAB2FB7D002BBC
:1050D00001D00C2300E00823B969F868FFF74EFF00
:1050E000034618462037BD4680BD00BF0C01002096
:1050F00080B586B000AFF860B9607A607B80FB68ED
:105100001B79DB001D4A13443B61FB681B68BA68CE
:1051100000211846FFF7F1FCFB681B687A68012143
:105120001846FFF7EAFCFB681B687A8811461846A8
:10513000FFF773FD3B6A03F00103002B02D010233D
:105140007B6109E03B6A03F00203002B02D00423D9
:105150007B6101E000237B61FB681B68796918466D
:10516000FFF752FC3B6ADAB208233969F868FFF7A7
:1051700005FF034618461837BD4680BD0C010020C8
:1051800080B584B000AF78600B46FB700023FB73E2
:105190007B681B6800211846FFF736FC7B681B689C
:1051A00004211846FFF7E4FB786800F017F803467F
:1051B000002B02D00123FB730BE0786800F00EF89F
:1051C0000346002B02D00123FB7302E0FB78002B87
:1051D000F3D1FB7B18461037BD4680BD80B584B047
:1051E00000AF78607B681B79DB00104A1344BB601A
:1051F0000023FB73BB681B79DBB2022B01D00123B8
:10520000FB737B681B684FF482711846FFF7E7FB5E
:105210000346002B04D0BB6801221A710123FB73E3
:10522000FB7B18461037BD4680BD00BF0C01002037
:1052300080B582B000AF786039604FF488717868CB
:10524000FFF7CDFB0346002B12D04FF4887178682E
:10525000FFF7AEFB3B685B7903F00403002B07D03C
:105260003B681B68002B03D03B681B6801209847F4
:105270004FF48A717868FFF7B2FB0346002B12D017
:105280004FF48A717868FFF793FB3B685B7903F012
:105290000803002B07D03B681B68002B03D03B683A
:1052A0001B68022098474FF48E717868FFF797FBD0
:1052B0000346002B12D04FF48E717868FFF778FB0D
:1052C0003B685B7903F01003002B07D13B681B6838
:1052D000002B03D03B681B68002098474FF4827175
:1052E0007868FFF77CFB0346002B0FD04FF48271E8
:1052F0007868FFF75DFB3B6801221A713B681B6809
:10530000002B03D03B681B680320984700BF083779
:10531000BD4680BD80B500AF02490348FFF788FF56
:1053200000BF80BD0C01002000C0014080B500AF6F
:1053300002490348FFF77CFF00BF80BD1401002035
:105340000010024080B500AF02490348FFF770FF2C
:1053500000BF80BD1C0100200020024080B500AFCE
:1053600002490348FFF764FF00BF80BD240100200D
:1053700000D0024080B483B000AF0346FB7197F9C0
:105380000730002B0BDBFB7903F01F02074997F96D
:1053900007305B09012000FA02F241F8232000BF28
:1053A0000C37BD465DF8047B704700BF00E100E0AC
:1053B00080B483B000AF0346FB7197F90730002B30
:1053C00012DBFB7903F01F020A4997F907305B09EA
:1053D000012000FA02F2203341F82320BFF34F8F5F
:1053E00000BFBFF36F8F00BF00BF0C37BD465DF835
:1053F000047B704700E100E080B483B000AF034657
:10540000FB7197F90730002B0CDBFB7903F01F02CF
:10541000074997F907305B09012000FA02F260336F
:1054200041F8232000BF0C37BD465DF8047B704770
:1054300000E100E080B483B000AF03463960FB7147
:1054400097F90730002B0ADB3B68DAB20C4997F971
:1054500007305201D2B20B4483F800230AE03B68C4
:10546000DAB20849FB7903F00F03043B5201D2B2D0
:105470000B441A7600BF0C37BD465DF8047B7047BD
:1054800000E100E000ED00E080B582B000AF03462F
:10549000FB7197F907301846FFF7AEFF97F9073011
:1054A0001846FFF767FF00BF0837BD4680BD80B5CF
:1054B00082B000AF0346FB7197F907301846FFF73B
:1054C00077FF00BF0837BD4680BD80B400AF044BF6
:1054D0000122C3F8002500BFBD465DF8047B70477C
:1054E0000020014080B400AF044B0022C3F8002527
:1054F00000BFBD465DF8047B704700BF002001403F
:1055000080B483B000AF7860044A7B68C2F804338B
:1055100000BF0C37BD465DF8047B7047002001409A
:1055200080B483B000AF0346FB71054BD3F804236E
:10553000FB79134018460C37BD465DF8047B704775
:105540000020014080B400AF044B0122C3F828259D
:1055500000BFBD465DF8047B704700BF00200140DE
:1055600080B400AF044B0022C3F8282500BFBD461D
:105570005DF8047B704700BF0020014080B485B017
:1055800000AFF860B9607A60084AFB68C2F820355D
:10559000064ABB68C2F82435044A7B68C2F81C3549
:1055A00000BF1437BD465DF8047B70470020014002
:1055B00080B483B000AF0346FB71FB7903F18043F5
:1055C00003F5903301221A6000BF0C37BD465DF829
:1055D000047B704780B485B000AF0346FB80FB8836
:1055E00003F1804303F5903300221A60FB8803F136
:1055F000804303F590331B68FB60FB6800BF1437E2
:10560000BD465DF8047B704780B483B000AF0346AD
:10561000FB80FB8803F1804303F590331B68184639
:105620000C37BD465DF8047B704780B483B000AF93
:105630007860074BD3F8002205497B681343C1F813
:10564000003200BF0C37BD465DF8047B704700BFD9
:105650000020014080B483B000AF0346FB71054ACF
:10566000FB79C2F8083500BF0C37BD465DF8047BF6
:10567000704700BF0020014080B400AF034BD3F857
:105680000C351846BD465DF8047B7047002001408C
:1056900080B400AF034BD3F818351846BD465DF80B
:1056A000047B70470020014080B400AF034BD3F867
:1056B00048351846BD465DF8047B70470020014020
:1056C00080B483B000AF7860044A7B68C2F840358C
:1056D00000BF0C37BD465DF8047B704700200140D9
:1056E00080B483B000AF0346FB71054AFB79C2F872
:1056F000103500BF0C37BD465DF8047B704700BF16
:105700000020014080B483B000AF0346FB71054A1E
:10571000FB79C2F8043500BF0C37BD465DF8047B49
:10572000704700BF0020014080B483B000AF7860B4
:105730007B681B681F2B02D84FF0A04306E07B68F4
:105740001B6803F01F027B681A60034B18460C3776
:10575000BD465DF8047B70470003005080B584B0FF
:1057600000AF7860084611461A460346FB700B46A8
:10577000BB7013467B703B1D1846FFF7D5FFF860E2
:10578000FA78BB785B001A437B789B001A433B7E18
:105790001B0242EA03013B7F1B047A681943FB6842
:1057A00002F5E07243F8221000BF1037BD4680BDFD
:1057B00080B584B002AF78600B46FB70FB780022A6
:1057C000019200220092002200217868FFF7C6FFB4
:1057D00000BF0837BD4680BD80B582B000AF4FF432
:1057E0008070FFF711FF0346002B17D00120FFF751
:1057F00097FE0346002B11D04FF48070FFF7EAFEAE
:105800004FF480733B80FFF737FF03465BB2BB70FA
:10581000234B1B683A4692E8030098474FF4827086
:10582000FFF7F2FE0346002B1CD00220FFF778FEA4
:105830000346002B16D04FF48270FFF7CBFE4FF4D7
:1058400082733B80FFF724FF03461BB27B80FFF788
:105850002BFF03469BB2BB80114B1B683A4692E874
:10586000030098474FF48470FFF7CEFE0346002BE9
:1058700012D00420FFF754FE0346002B0CD04FF447
:105880008470FFF7A7FE4FF484733B80044B1B68C2
:105890003A4692E80300984700BF0837BD4680BDEE
:1058A0002C01002080B584B000AF78603960394B9E
:1058B0001B78002B03D0384BBB60BB6866E0374ACF
:1058C0003B6813607B685B781846FFF7C3FE7B6814
:1058D0005B6800211846FFF76BFF7B689B6800211F
:1058E0001846FFF765FF7B68DB68B3F1FF3F0FD019
:1058F0007B68DB6800211846FFF75AFF7B681B694D
:105900001846FFF7DDFE7B681B7D1846FFF7FAFEA1
:105910007B6858687B6899687B68DB681A46FFF784
:105920002DFE0120FFF781FE7B685B7D002B02D0FE
:10593000FFF708FE01E0FFF713FE0423FB607B681E
:105940001B78102B08D07B681B781846FFF7C8FE21
:10595000FB6843F00203FB607B689B7D002B03D058
:10596000FB6843F00103FB60F868FFF7C9FD7B6843
:10597000DB7D19461220FFF75DFD1220FFF784FD45
:10598000044B01221A70064BBB60BB6818461037E7
:10599000BD4680BD300100200500AD0B2C0100206C
:1059A0000000AD0B80B500AF00F018F81220FFF733
:1059B0007EFD024B00221A7000BF80BD3001002026
:1059C00080B500AFFFF781FD0020FFF7F1FD024B2E
:1059D00002221A7000BF80BD3001002080B500AFE8
:1059E0000420FFF7E5FDFFF77DFD024B01221A7051
:1059F00000BF80BD3001002080B582B000AF78606C
:105A000039600820FFF7D4FDFFF742FE03461AB2C3
:105A10007B681A80FFF748FE03461AB23B681A807B
:105A200000BF0837BD4680BD80B483B000AF0346D9
:105A3000FB7197F90730002B0BDBFB7903F01F029A
:105A4000074997F907305B09012000FA02F241F893
:105A5000232000BF0C37BD465DF8047B704700BFB4
:105A600000E100E080B483B000AF0346FB7197F91A
:105A70000730002B12DBFB7903F01F020A4997F96C
:105A800007305B09012000FA02F2203341F823209D
:105A9000BFF34F8F00BFBFF36F8F00BF00BF0C3746
:105AA000BD465DF8047B704700E100E080B483B040
:105AB00000AF0346FB7197F90730002B0CDBFB7935
:105AC00003F01F02074997F907305B09012000FA2C
:105AD00002F2603341F8232000BF0C37BD465DF869
