:1000000000000420ADA1010015A2010021A2010001
:100010002DA2010039A2010045A20100000000004C
:100020000000000000000000000000005DA20100D0
:1000300051A20100000000005DA201005DA20100CC
:1000400080B483B000AF0346FB7197F90730002BF3
:100050000BDBFB7903F01F02064997F907305B09B8
:10006000012000FA02F241F8232000BF0C37BD4600
:1000700080BC704700E100E080B483B000AF03466D
:10008000FB7197F90730002B12DBFB7903F01F029D
:100090000A4997F907305B09012000FA02F2203380
:1000A00041F82320BFF34F8F00BFBFF36F8F00BF16
:1000B00000BF0C37BD4680BC704700BF00E100E0C8
:1000C00080B483B000AF03463960FB7197F9073005
:1000D000002B0ADB3B68DAB20C4997F90730520172
:1000E000D2B20B4483F800230AE03B68DAB2084935
:1000F000FB7903F00F03043B5201D2B20B441A7692
:1001000000BF0C37BD4680BC704700BF00E100E077
:1001100000ED00E080B483B000AF78607B681B0B1B
:100120005BB218460C37BD4680BC704780B483B0C4
:1001300000AF78604FF080427B68C2F8043300BFA4
:100140000C37BD4680BC704780B483B000AF786088
:100150004FF080427B68C2F8083300BF0C37BD46C1
:1001600080BC704780B483B000AF0346FB71FB795D
:1001700003F1804301221A6000BF0C37BD4680BCEA
:10018000704780B485B000AF0346FB80FB8803F165
:10019000804300221A60FB8803F180431B68FB60E8
:1001A000FB6800BF1437BD4680BC704780B483B085
:1001B00000AF0346FB80FB8803F180431B68002BE4
:1001C00014BF01230023DBB218460C37BD4680BCA8
:1001D000704780B483B000AF78604FF080427B6896
:1001E000C2F8183500BF0C37BD4680BC704780B4DC
:1001F00000AF4FF08043D3F818341B0C03F0010319
:10020000002B14BF01230023DBB21846BD4680BC7F
:10021000704780B483B000AF0346FB714FF080435A
:10022000D3F80C3403F00112FB7943F480339A4283
:100230000CBF01230023DBB218460C37BD4680BC3F
:10024000704790B583B000AF0723FB71164C4FF099
:100250008040FFF75FFF03465B0954F823404FF0EF
:100260008040FFF757FF0346DBB203F01F0324FA79
:1002700003F303F00103002B12D14FF08040FFF78E
:1002800049FF03461A46FB7919461046FFF718FF47
:100290004FF08040FFF73EFF03461846FFF7D0FEC1
:1002A00000BF0C37BD4690BD00E100E080B485B0D2
:1002B00000AF78600B4BFB600B4B1B79002B02D01F
:1002C0000A4BFB6008E0084A7B681360064B01227A
:1002D0001A71054B00225A71FB6818461437BD4647
:1002E00080BC70470000AD0B180000200C00AD0B67
:1002F00080B500AFFFF7A5FF0120FFF76AFF024BB3
:1003000001221A7000BF80BD2000002080B500AF20
:100310000B4B1B7883F00103DBB2002B07D04FF0AF
:100320008040FFF7F7FE03461846FFF7A5FE0320BF
:10033000FFF70AFF034B00221A7000BF80BD00BF09
:10034000D80000202000002080B500AF00F018F891
:1003500000F039F8024B00221A7100BF80BD00BFC7
:100360001800002080B500AF4FF48270FFF709FF3E
:100370000220FFF7DBFE0820FFF7F4FE00BF80BD80
:1003800080B500AF0220FFF7DFFE4FF48270FFF769
:10039000F8FE0C20FFF7E6FE00BFFFF728FF03463C
:1003A000002BFAD100BF00BF80BD80B500AF4FF475
:1003B0008070FFF7E6FE0120FFF7B8FE0020FFF790
:1003C000D1FE00BF80BD80B500AF0120FFF7BCFEAD
:1003D0004FF48070FFF7D5FE0420FFF7C3FE00BF87
:1003E0000120FFF716FF0346002BF9D1024B002234
:1003F0005A7100BF80BD00BF1800002080B483B0D8
:1004000000AF044B7B607B6818460C37BD4680BC50
:10041000704700BF0000AD0B80B400AF024B184620
:10042000BD4680BC704700BF0000AD0B80B483B0F8
:1004300000AF0346FB7100BF0C37BD4680BC704760
:1004400080B400AF00BFBD4680BC704780B500AF30
:100450004FF48070FFF7AAFE0346002B14D04FF430
:100460008070FFF78EFE0120FFF76EFE104B5B7968
:1004700083F00103DBB2002B06D00D4B01225A7131
:100480000B4B1B68002098474FF48270FFF78EFEDD
:100490000346002B0AD04FF48270FFF772FE022051
:1004A000FFF752FE024B1B680120984700BF80BD3A
:1004B0001800002080B483B000AF0346FB7197F9A9
:1004C0000730002B0BDBFB7903F01F02064997F97D
:1004D00007305B09012000FA02F241F8232000BF37
:1004E0000C37BD4680BC704700E100E080B483B0AB
:1004F00000AF0346FB7197F90730002B12DBFB7945
:1005000003F01F020A4997F907305B09012000FA3E
:1005100002F2203341F82320BFF34F8F00BFBFF317
:100520006F8F00BF00BF0C37BD4680BC704700BF57
:1005300000E100E080B483B000AF03463960FB7196
:1005400097F90730002B0ADB3B68DAB20C4997F9C0
:1005500007305201D2B20B4483F800230AE03B6813
:10056000DAB20849FB7903F00F03043B5201D2B21F
:100570000B441A7600BF0C37BD4680BC704700BFE5
:1005800000E100E000ED00E080B483B000AF7860EF
:100590007B681B0B5BB218460C37BD4680BC7047AE
:1005A00080B400AF034B0222C3F8002500BFBD4654
:1005B00080BC70470030014080B400AF034B002284
:1005C000C3F8002500BFBD4680BC70470030014025
:1005D00080B400AF064BD3F8003503F00203002BC4
:1005E00014BF01230023DBB21846BD4680BC704710
:1005F0000030014080B483B000AF0346FB71044A71
:10060000FB79C2F8083500BF0C37BD4680BC704787
:100610000030014080B483B000AF0346FB71044A50
:10062000FB79C2F80C3500BF0C37BD4680BC704763
:100630000030014080B483B000AFB8803B7903F054
:100640003F027B791B0203F47C5304491343C1F836
:10065000303500BF0C37BD4680BC704700300140CC
:1006600080B483B000AF0346FB71074BD3F8343539
:10067000FA7912021146044A0B43C2F8343500BF1E
:100680000C37BD4680BC70470030014080B483B059
:1006900000AF0346FB71064BD3F83425FB790449C0
:1006A0001343C1F8343500BF0C37BD4680BC7047DA
:1006B0000030014080B483B000AF0346FB71FB798A
:1006C000044A03F00103C2F8383500BF0C37BD46B9
:1006D00080BC70470030014080B483B000AF034657
:1006E000FB71044AFB79C2F8043500BF0C37BD46E4
:1006F00080BC70470030014080B400AF034BD3F89A
:1007000000341846BD4680BC704700BF0030014031
:1007100080B483B000AF7860044A7B68C2F80433C9
:1007200000BF0C37BD4680BC704700BF00300140A1
:1007300080B483B000AF7860044A7B68C2F80833A5
:1007400000BF0C37BD4680BC704700BF0030014081
:1007500080B483B000AF7860074BD3F804237B6884
:100760001340002B14BF01230023DBB218460C37C3
:10077000BD4680BC704700BF0030014080B483B0EC
:1007800000AF7860064BD3F8002205497B6813431D
:10079000C1F8003200BF0C37BD4680BC704700BFB7
:1007A0000030014080B483B000AF7860064BD3F8CE
:1007B00000227B68DB4304491340C1F8003200BFCC
:1007C0000C37BD4680BC70470030014080B483B018
:1007D00000AF0346FB71FB7903F1804303F59833C7
:1007E00001221A6000BF0C37BD4680BC704780B440
:1007F00085B000AF0346FB80FB8803F1804303F51F
:10080000983300221A60FB8803F1804303F5983384
:100810001B68FB60FB6800BF1437BD4680BC704797
:1008200080B483B000AF0346FB80FB8803F18043B4
:1008300003F598331B68002B14BF01230023DBB2A0
:1008400018460C37BD4680BC704780B582B000AFFB
:1008500003463960FB80FB881846FFF7E1FF03463B
:10086000002B0ED03868FFF773FF0346002B08D02B
:10087000FB881846FFF7BBFF044B1B68FA8810463D
:10088000984700BF0837BD4680BD00BF2400002048
:1008900080B500AF01214FF48070FFF7D6FF022131
:1008A0004FF48270FFF7D1FF04214FF48470FFF7FB
:1008B000CCFF08214FF48670FFF7C7FF00BF80BD53
:1008C00080B584B000AF786039603D4B1B78002B59
:1008D00003D03C4BFB60FB686EE03B4A3B68136017
:1008E0003A493B4816F094FA03463A4A934203D0F9
:1008F000394BFB60FB685FE07B681B781846FFF7AD
:1009000079FE7B681B78052B04D17B685B781846E1
:10091000FFF780FE7B68DA781B791B021A430023FD
:1009200062F30F031846FFF785FE7B689B78184635
:10093000FFF796FE7B685B791846FFF7A7FE7B689A
:100940009B791846FFF7B6FE1C20FFF72BFF0F2000
:10095000FFF7EEFE7B68DB791846FFF7BDFEFFF779
:100960001FFE0420FFF732FF4FF48070FFF73FFFB8
:100970004FF48270FFF73BFF4FF48470FFF737FFAF
:100980004FF48670FFF733FF1148FFF7FDFD034674
:100990001A467B681B7A19461046FFF7CBFD0C48B8
:1009A000FFF7F2FD03461846FFF784FD044B0122D2
:1009B0001A70084BFB60FB6818461037BD4680BDB7
:1009C000280000200500AD0B240000209108000045
:1009D000003001400000AD0B0B00AD0B80B500AF47
:1009E0000948FFF7D1FD03461846FFF77FFDFFF7E3
:1009F000E3FD054816F03AFA044B00221A70044B46
:100A000000221A6000BF80BD003001402800002095
:100A10002400002080B584B000AF0346FB71FFF7CF
:100A2000D7FD0346FB730420FFF7D0FE0A4B1B786B
:100A3000022B02D1084B01221A70FFF7BDFDFB7992
:100A40001846FFF749FEFB7B002B01D0FFF7A8FDFE
:100A500000BF1037BD4680BD2800002080B582B0A1
:100A600000AF786039607868FFF752FE3868FFF7AA
:100A700085FE0020FFF7AAFE034B02221A7000BF7A
:100A80000837BD4680BD00BF2800002080B500AFFC
:100A90004FF0FF30FFF786FE4FF0FF30FFF748FEC4
:100AA0000420FFF793FE024B01221A7000BF80BDA5
:100AB0002800002080B500AF0820FFF787FEFFF771
:100AC0001BFE0346184680BD80B483B000AF0346CA
:100AD000FB7197F90730002B0BDBFB7903F01F024A
:100AE000064997F907305B09012000FA02F241F844
:100AF000232000BF0C37BD4680BC704700E100E0FA
:100B000080B483B000AF03463960FB7197F90730BA
:100B1000002B0ADB3B68DAB20C4997F90730520127
:100B2000D2B20B4483F800230AE03B68DAB20849EA
:100B3000FB7903F00F03043B5201D2B20B441A7647
:100B400000BF0C37BD4680BC704700BF00E100E02D
:100B500000ED00E080B483B000AF78607B681B0BD1
:100B60005BB218460C37BD4680BC704780B483B07A
:100B700000AF0346FB71FB7903F1804303F5C043EB
:100B80001A460123136000BF0C37BD4680BC704776
:100B900080B483B000AF0346FB71FB7903F180435F
:100BA00003F5C04318460C37BD4680BC704780B57E
:100BB00082B000AF0346FB80FB88184600F024F8A3
:100BC00003461B68012B0CBF01230023DBB2184630
:100BD0000837BD4680BD80B584B000AF0346FB80BA
:100BE000FB88184600F010F803461A4600231360ED
:100BF000FB88184600F008F803461B68FB60FB689A
:100C000000BF1037BD4680BD80B483B000AF03463F
:100C1000FB80FB8803F1804303F5C04318460C3783
:100C2000BD4680BC704780B483B000AF7860044A92
:100C30007B68C2F8043300BF0C37BD4680BC7047E8
:100C40000060004080B483B000AF7860044A7B68E5
:100C5000C2F8083300BF0C37BD4680BC704700BFE8
:100C60000060004080B483B000AF7860044BD3F8DC
:100C700004237B68134018460C37BD4680BC704780
:100C80000060004080B483B000AF7860094A7B68A0
:100C900003F5A27352F82330064943F001027B6842
:100CA00003F5A27341F8232000BF0C37BD4680BC7A
:100CB000704700BF0060004080B483B000AF786030
:100CC000094A7B6803F5A27352F82330064923F0E2
:100CD00001027B6803F5A27341F8232000BF0C37A3
:100CE000BD4680BC704700BF0060004080B485B046
:100CF00000AFF860B9601346FB71154AFB6803F555
:100D0000A27352F82330124923F44F3323F4407373
:100D1000FA6802F5A27241F822300D4AFB6803F529
:100D2000A27352F82320BB681B0203F47C51FB79A9
:100D30001B0403F440330B4305491A43FB6803F5D6
:100D4000A27341F8232000BF1437BD4680BC704712
:100D50000060004080B483B000AF7860064A7B68D2
:100D600003F5A27352F823301B0A03F03F03184621
:100D70000C37BD4680BC70470060004080B483B033
:100D800000AF7860074A7B6803F5A27352F82330FE
:100D90001B0C03F00303DBB218460C37BD4680BCC6
:100DA000704700BF0060004080B485B000AF78603D
:100DB0000A4A7B6803F5A27352F8233043F0030319
:100DC000FB6006497B6803F5A273FA6841F82320AB
:100DD00000BF1437BD4680BC704700BF00600040B4
:100DE00080B483B000AF7860094A7B6803F5A273D2
:100DF00052F82330064923F003027B6803F5A273FF
:100E000041F8232000BF0C37BD4680BC704700BFAF
:100E10000060004080B485B000AFF860B960114652
:100E20001A460B46FB711346BB71184AFB6803F563
:100E3000A27352F82330154923F4991323F4F8537D
:100E4000FA6802F5A27241F82230104AFB6803F5F5
:100E5000A27352F82320BB681B0203F47C51FB7978
:100E60001B0403F440331943BB791B0503F48013BF
:100E70000B4306491A43FB6803F5A27341F823208C
:100E800000BF1437BD4680BC704700BF0060004003
:100E900080B483B000AF78600B46FB700B4A7B6870
:100EA00003F5A27352F8233023F48012FB781B055C
:100EB00003F4801305491A437B6803F5A27341F8D4
:100EC000232000BF0C37BD4680BC70470060004047
:100ED00080B483B000AF7860054A7B6803F5A273E5
:100EE000002142F8231000BF0C37BD4680BC70477C
:100EF0000060004080B483B000AF78607B681B68FE
:100F00001F2B02D84FF0A04306E07B681B6803F05C
:100F10001F027B681A60034B18460C37BD4680BC25
:100F2000704700BF0003005080B584B000AF786008
:100F3000084611461A460346FB700B46BB70134623
:100F40007B703B1D1846FFF7D5FFF860FA78BB7839
:100F50005B001A437B789B001A433B7E1B0242EAEC
:100F600003013B7F1B047A681943FB6802F5E072BA
:100F700043F8221000BF1037BD4680BD80B584B055
:100F800002AF786000230193002300930023012225
:100F900001217868FFF7C8FF00BF0837BD4680BD54
:100FA00080B584B002AF78600B46FB70FB780022FE
:100FB000019200220092002200217868FFF7B4FF1E
:100FC00000BF0837BD4680BD80B584B002AF7860F1
:100FD000002301930023009300230122002178685D
:100FE000FFF7A2FF00BF0837BD4680BD80B584B0C3
:100FF00000AF78603B1D1846FFF77CFFF8607A6809
:10100000FB6802F5E07253F8223023F00203BB6064
:101010007A68FB6802F5E072B96843F8221000BFF5
:101020001037BD4680BD80B584B000AF78600B46F8
:10103000FB703B1D1846FFF75DFFF8607A68FB68A0
:1010400002F5E07253F822307A6823F44031FB68ED
:1010500002F5E07243F822107A68FB6802F5E0724C
:1010600053F82230FA78120411467A681943FB6863
:1010700002F5E07243F8221000BF1037BD4680BD74
:1010800080B584B000AF78603B1D1846FFF732FF93
:10109000F8607B68012202FA03F31946F86800F051
:1010A00075F800BF1037BD4680BD80B584B000AF75
:1010B00078603B1D1846FFF71DFFF8607B68012232
:1010C00002FA03F31946F86800F06EF800BF103713
:1010D000BD4680BD80B584B000AF78603B1D18462A
:1010E000FFF708FFF860FB68D3F80435BB60BB6806
:1010F000DA437B68012101FA03F31A40FB68C3F865
:1011000008257B6801229A40BB681A40FB68C3F837
:101110000C2500BF1037BD4680BD80B584B000AF40
:1011200078603B1D1846FFF7E5FEF860F86800F0B0
:1011300021F802467B6822FA03F303F00103184604
:101140001037BD4680BD80B584B000AF78603B1DD0
:101150001846FFF7CFFEF8607A68FB6802F5E07288
:1011600053F822301B0C03F00303DBB21846103790
:10117000BD4680BD80B483B000AF78607B68D3F893
:10118000103518460C37BD4680BC704780B483B01C
:1011900000AF786039607B683A68C3F8082500BF03
:1011A0000C37BD4680BC704780B483B000AF786018
:1011B00039607B683A68C3F80C2500BF0C37BD4620
:1011C00080BC704780B489B000AFF860B9607A60C5
:1011D000174A07F1140392E8030083E80300FB6851
:1011E000FB6119E0FB699B0020333B4453F80C3C46
:1011F000D3F820257B681A60FB699B0020333B44B1
:1012000053F80C3C7A681268C3F820257B680433D5
:101210007B60FB690133FB61FA68BB681344FA69C0
:101220009A42DFD300BF00BF2437BD4680BC704761
:10123000F4A6010080B584B000AF78603B1D18466D
:10124000FFF758FEF8607B68012202FA03F31A46A2
:10125000FB68C3F8202500BF1037BD4680BD80B4B1
:1012600085B000AF78607B685B09BB600023FB60E2
:10127000BB68002B03D0BB68012B04D007E04FF004
:10128000FF33FB6003E04FF6FF73FB6000BF7B683A
:1012900003F01F037B60FA687B6822FA03F303F014
:1012A0000103002B14BF01230023DBB218461437BF
:1012B000BD4680BC704780B485B000AF78603960AF
:1012C0003B68FB607B68DB08BB607B6803F007035F
:1012D0007B6001227B6802FA03F3F968BA680A446A
:1012E0001278134018461437BD4680BC704780B44E
:1012F00085B000AF786039603B68FB607B68DB08D5
:10130000BB607B6803F007037B60FA68BB6813442B
:101310001B785AB201217B6801FA03F35BB21343D5
:1013200059B2FA68BB681344CAB21A7000BF1437C6
:10133000BD4680BC704780B485B000AF786039602E
:101340003B68FB607B68DB08BB607B6803F00703DE
:101350007B60FA68BB6813441B785AB201217B6832
:1013600001FA03F35BB2DB435BB2134059B2FA6894
:10137000BB681344CAB21A7000BF1437BD4680BCA4
:10138000704780B483B000AF7860084A7B6813442C
:10139000243393F90030B3F1FF3F14BF012300233E
:1013A000DBB218460C37BD4680BC70472C000020CD
:1013B00080B483B000AF7860084A7B68134424335C
:1013C00093F9003013F1020F0CBF01230023DBB2AD
:1013D00018460C37BD4680BC704700BF2C0000206B
:1013E00080B483B000AF78600D4A7B681344243327
:1013F00093F90030002B09DB094A7B68134424333E
:1014000093F90030072B01DC012300E0002303F0F7
:101410000103DBB218460C37BD4680BC704700BFE5
:101420002C00002080B483B000AF7860074A7B684E
:101430001344243393F90030072BCCBF012300233E
:10144000DBB218460C37BD4680BC70472C0000202C
:1014500080B483B000AF7860074A7B6813442433BC
:1014600093F90030DB43DBB2DB09DBB218460C3703
:10147000BD4680BC704700BF2C00002080B485B002
:1014800000AFF860B9607A60FB70BB6859B20F4A70
:10149000FB68134424330A461A700C49BB687A6807
:1014A00041F82320FB7883F00103DBB2002B08D046
:1014B000BB68083BFA6851B2044A13440A4683F8F1
:1014C000542000BF1437BD4680BC70472C0000205C
:1014D00080B483B000AF7860054A7B68134424333E
:1014E000FE221A7000BF0C37BD4680BC704700BF9B
:1014F0002C00002080B483B000AF7860054A7B6880
:1015000013442433FF221A7000BF0C37BD4680BC41
:10151000704700BF2C00002080B582B000AF78601B
:1015200003497868FFF7E3FE00BF0837BD4680BD7A
:101530008100002080B582B000AF786003497868F0
:10154000FFF7F9FE00BF0837BD4680BD81000020CF
:1015500080B582B000AF786006497868FFF7ABFECF
:101560000346002B14BF01230023DBB218460837C3
:10157000BD4680BD8100002080B483B000AF78609C
:10158000054A7B681344243393F9003018460C371E
:10159000BD4680BC704700BF2C00002080B483B0E3
:1015A00000AF7860044A7B6852F8233018460C3745
:1015B000BD4680BC704700BF2C00002080B485B0C1
:1015C00000AF7860074A7B681344543393F90030C6
:1015D000FB73FB7B23F0C00318461437BD4680BC69
:1015E000704700BF2C00002080B485B000AF786049
:1015F000074A7B681344543393F90030FB73FB7B39
:101600009B09DBB218461437BD4680BC704700BF4B
:101610002C00002080B588B000AFF860B960134698
:10162000FB71FF23FB77FB79002B01D0002300E047
:1016300008237B61FB79002B01D0082300E00923FC
:101640003B617B69BB6112E00E4ABB6952F82330F3
:10165000B3F1FF3F08D1FB79BA68B969F868FFF7C1
:101660000DFFBB69FB7706E0BB690133BB61BA695B
:101670003B699A42E8D397F91F3018462037BD4698
:1016800080BD00BF2C00002080B483B000AF0346B3
:10169000FB71FB79094A4FF0FF3142F82310FB79C7
:1016A000072B06D9FB79083B044A1344FF2283F831
:1016B000542000BF0C37BD4680BC70472C00002072
:1016C00080B582B000AF284B93F85B30002B03D07D
:1016D000264B3B603B6843E00023FB710DE0FB7948
:1016E0001846FFF7BCFD0346002B03D0FB791846D4
:1016F000FFF700FFFB790133FB71FB792F2BEED94C
:101700000023FB7106E0FB791846FFF7BDFFFB796C
:101710000133FB71FB79082BF5D90622002114480F
:1017200018F05AFF1348FFF715FA03460721184629
:10173000FFF7E6F90F48FFF70DFA03461846FFF7E3
:10174000C3F94FF4BE70FFF746FA4FF00040FFF7C1
:101750006AFA054B012283F85B20074B3B603B682C
:1017600018460837BD4680BD2C0000200500AD0B93
:1017700081000020006000400000AD0B80B400AF8D
:10178000054B93F85B30002B14BF01230023DBB221
:101790001846BD4680BC70472C00002080B582B042
:1017A00000AF00237B601BE07868FFF758FD03461D
:1017B000002B12D07868FFF7FBFD0346002B03D007
:1017C000786800F06BF808E07868FFF741FE0346A0
:1017D000002B02D0786800F099FA7B6801337B60B7
:1017E0007B682F2BE0D9044B002283F85B2000BFDD
:1017F0000837BD4680BD00BF2C00002080B584B0F6
:1018000000AF78603960224BFB607868FFF7B9FD64
:101810000346002B02D01F4BFB6034E03B689B78F3
:10182000002B18D0012200217868FFF7F3FE034651
:10183000FB7297F90B30B3F1FF3F09D097F90B001A
:101840003B681A783B685B787968FFF7E3FA05E054
:10185000114BFB6002E07868FFF73AFEFB680C4A28
:10186000934210D13B685B78012B03D17868FFF776
:1018700007FC02E07868FFF718FC7868FFF77EFB4A
:101880007868FFF749FEFB6818461037BD4680BDF3
:101890000000AD0B0500AD0B0200AD0B80B582B0B2
:1018A00000AF78607868FFF79BFD0346002B0ED0F1
:1018B0007868FFF761FE0346DBB21846FFF7E4FEE7
:1018C0007868FFF759FE03461846FFF701FB786872
:1018D000FFF710FE7868FFF73BFE0346002B05D0AC
:1018E0007868FFF771FB7868FFF724FE00BF0837C0
:1018F000BD4680BD80B582B000AF78607868FFF7E4
:10190000BFFB00BF0837BD4680BD80B582B000AFC9
:1019100078607868FFF7C9FB00BF0837BD4680BD17
:1019200080B582B000AF78607868FFF7D3FB00BF66
:101930000837BD4680BD80B582B000AF7860064AEA
:101940007B681344243393F900301846FFF72CFAD0
:1019500000BF0837BD4680BD2C00002080B582B096
:1019600000AF7860064A7B681344243393F9003053
:101970001846FFF735FA00BF0837BD4680BD00BFE7
:101980002C00002080B582B000AF78607868FFF747
:10199000F3FD0346DBB29B00DBB218460837BD46B9
:1019A00080BD80B584B000AF78607868FFF7EAFF4B
:1019B0000346FB73FB7B1846FFF7EAF8034618461D
:1019C0001037BD4680BD80B582B000AF78607868C2
:1019D000FFF7D2FD0346DBB20C33DBB29B00DBB278
:1019E00018460837BD4680BD80B584B000AF78602A
:1019F0007868FFF7E8FF0346FB73FB7B1846FFF7A9
:101A0000C7F8034618461037BD4680BD80B582B082
:101A100000AF78607868FFF7AFFD0346DBB218339C
:101A2000DBB29B00DBB218460837BD4680BD80B5EF
:101A300084B000AF78607868FFF7E8FF0346FB7377
:101A4000FB7B1846FFF7A4F8034618461037BD463F
:101A500080BD80B584B000AF78600B46FB70FB782A
:101A6000002B14BF01230023DBB2FB73074A7B6802
:101A70001344243393F900301A46FB7B1946104671
:101A8000FFF706FA00BF1037BD4680BD2C000020CE
:101A900080B584B000AF78607868FFF76DFD0346CD
:101AA000DBB29B00FB73FB7B1846FFF75FF800BFC0
:101AB0001037BD4680BD80B584B000AF78607868CF
:101AC000FFF75AFD0346DBB20C33DBB29B00FB731E
:101AD000FB7B1846FFF74AF800BF1037BD4680BDB4
:101AE00080B584B000AF78607868FFF745FD0346A5
:101AF000DBB21833DBB29B00FB73FB7B1846FFF7AE
:101B000035F800BF1037BD4680BD80B586B000AF48
:101B1000F860B9607A60334B7B61F868FFF798FC36
:101B20000346002B02D0304B7B6156E0BB689B78AC
:101B3000C3F34003DBB21A467968F868FFF76AFD21
:101B40000346FB7497F91330B3F1FF3F43D0BB68F2
:101B50009B78C3F38003DBB283F00103DBB2002B7D
:101B600013D0BB689B7803F00103DBB2002B03D0DA
:101B7000F868FFF73BFA05E0BB685B781946F86840
:101B8000FFF70EFAF868FFF7C7FCBB689B7803F015
:101B90000203DBB2002B08D097F91300BB681B7857
:101BA0001A46F968FFF7A2F817E097F91330083BD7
:101BB0000E4A134493F95410BB681B789B015AB228
:101BC00097F91330083B0A4351B2084A13440A46B6
:101BD00083F8542001E0064B7B617B691846183777
:101BE000BD4680BD0000AD0B0500AD0B2C000020F4
:101BF0000200AD0B80B588B000AF78600B46FB707B
:101C00007868FFF70FFC0346002B24D07868FFF7B5
:101C1000B3FC0346083B1846FFF7E6FC0346FB739C
:101C2000FB7B032B0AD17868FFF777FA0346002B7A
:101C300001D0032300E00223FB7706E0FB7B012BAE
:101C400001D1022300E00323FB77FB7F194678686C
:101C5000FFF7E9F92DE07868FFF7C2FB0346002B98
:101C600027D07868FFF788FC0346BB61BB699BB24D
:101C700040339BB29B00FB82BB691846FFF702F81A
:101C8000FB8A1846FEF7A7FFFB78002B11D0786877
:101C9000FFF772FC03461846FFF780FC38613B698A
:101CA000002B06D00122BB6902FA03F31846FEF7A7
:101CB000BAFF00BF2037BD4680BD80B584B000AFFD
:101CC00078607868FFF7AEFB0346002B04D0002154
:101CD0007868FFF7A8F915E07868FFF781FB0346FD
:101CE000002B0FD07868FFF747FC0346FB60FB68CA
:101CF0001846FEF7E1FF0122FB6802FA03F31846DB
:101D0000FEF7A0FF00BF1037BD4680BD80B582B092
:101D100000AF78607868FFF7D0FF7868FFF760FB66
:101D20000346002B06D07868FFF726FC03461846CA
:101D3000FFF7CEF87868FFF70BFC0346002B05D0C1
:101D40007868FFF741F97868FFF7F4FB7868FFF7E8
:101D50007FFB0346002B07D07868FFF70DFC034696
:101D6000DBB21846FFF790FC7868FFF7C3FB00BFB3
:101D70000837BD4680BD80B582B000AF7860786816
:101D8000FFF7CBF90346002B14BF01230023DBB27E
:101D900018460837BD4680BD80B582B000AF786078
:101DA0007868FFF71DFB0346002B09D07868FFF722
:101DB000E3FB03469BB240339BB29B009BB201E026
:101DC0004FF4BE7318460837BD4680BD80B584B059
:101DD00000AF78607868FFF7DFFF0346FB81FB897F
:101DE0001846FEF711FF034618461037BD4680BD62
:101DF00080B584B000AF78607A6802210020FFF7D8
:101E0000E1F90023FB600BE0FB689B007A68134458
:101E10001B68002B01D0012306E0FB680133FB6047
:101E2000FB68012BF0D9002318461037BD4680BD52
:101E300080B586B000AF786000237B6150E02F4A08
:101E40007B691344543393F90030B3F1FF3F43D01F
:101E50007869FFF7B3FB386179683869FFF72BFAC7
:101E60000346002B39D07869FFF7BEFB0346FB73AE
:101E70003869FFF768F90346BB73BB7B022B01D1BE
:101E8000032300E002237B737B7B19463869FFF74D
:101E9000CAF83869FFF7CEF93869FFF76DFB0346DA
:101EA0001846FFF77BFBB860BB68002B15D0FB7BA7
:101EB000032B0BD0BB7B022B02D1FB7B012B05D06C
:101EC000BB7B032B09D1FB7B022B06D1FA7BBB68C2
:101ED00011463869984700E000BF7B6901337B6198
:101EE0007B69002BABD07868FFF782FF0346002B9D
:101EF000A2D100BF00BF1837BD4680BD2C00002016
:101F000080B58AB000AF00237B623B1D00221A60BF
:101F10005A604FF48073FB830123BB6100233B6253
:101F20001DE0FB8B1846FEF742FE0346002B0DD04A
:101F3000B869FEF797FE0346002B07D0FB8B1846C7
:101F4000FEF749FE7A6ABB6913437B62BB695B009B
:101F5000BB61FB8B0433FB833B6A01333B623B6A0F
:101F6000072BDED94FF4BE70FEF721FE0346002B8F
:101F70000DD04FF4BE70FEF72EFE7B6A43F0004397
:101F80007B623B1D1A4602210020FFF71BF97B6A8A
:101F9000DBB2002B27D00123BB6100233B621FE093
:101FA000BA697B6A1340002B14D0386AFEF7D2FE60
:101FB0007861386AFEF7E2FE0346FB74386AFFF781
:101FC000EDFAF860FB68002B04D0FA7CFB68114640
:101FD00078699847BB695B00BB613B6A01333B6230
:101FE0003B6A072BDCD97B6A002B03DA3B1D1846C2
:101FF000FFF71EFF00BF2837BD4680BD80B483B009
:1020000000AF0346FB7197F90730002B0BDBFB7920
:1020100003F01F02064997F907305B09012000FA17
:1020200002F241F8232000BF0C37BD4680BC704748
:1020300000E100E080B483B000AF0346FB7197F984
:102040000730002B12DBFB7903F01F020A4997F9D6
:1020500007305B09012000FA02F2203341F8232007
:10206000BFF34F8F00BFBFF36F8F00BF00BF0C37B0
:10207000BD4680BC704700BF00E100E080B483B083
:1020800000AF03463960FB7197F90730002B0ADB7C
:102090003B68DAB20C4997F907305201D2B20B44CF
:1020A00083F800230AE03B68DAB20849FB7903F0C1
:1020B0000F03043B5201D2B20B441A7600BF0C3717
:1020C000BD4680BC704700BF00E100E000ED00E0CD
:1020D00080B483B000AF78607B6803F06043B3F1F5
:1020E000005F0CBF01230023DBB218460C37BD464E
:1020F00080BC704780B483B000AF78600B46FB7043
:10210000FB787A68134401221A6000BF0C37BD4681
:1021100080BC704780B485B000AF78600B467B8090
:102120007B887A68134400221A607B887A6813449B
:102130001B68FB60FB6800BF1437BD4680BC70475E
:1021400080B483B000AF78600B467B807B887A6870
:1021500013441B68002B14BF01230023DBB2184675
:102160000C37BD4680BC704780B483B000AF786048
:1021700039607B683A68C3F8042300BF0C37BD465A
:1021800080BC704780B483B000AF786039607B68F2
:102190003A68C3F8082300BF0C37BD4680BC7047BF
:1021A00080B483B000AF78607B680122C3F800255B
:1021B00000BF0C37BD4680BC704780B483B000AF11
:1021C00078607B680022C3F8002500BF0C37BD464D
:1021D00080BC704780B485B000AFF860B9607A60A9
:1021E0003B60FB68BA68C3F86425FB687A68C3F88B
:1021F0006825FB683A68C3F86025FB68BA69C3F8CC
:102200007025FB68FA69C3F86C2500BF1437BD461A
:1022100080BC704780B483B000AF78600846114638
:102220001A460346FB700B46BB7013467B70FB7867
:10223000002B19D13B7C012B02D13B7F012B11D00C
:102240003B7C022B10D13B7F002B0BD03B7F022B22
:1022500008D03B7F042B05D03B7F062B02D03B7F71
:10226000082B01D1002328E0FA787B68C3F8042505
:10227000BA787B68C3F824257A787B68C3F8202570
:102280003A7C7B68C3F81C253A7D7B68C3F8282517
:102290003A7F7B68C3F81825BB69002B04D17B68A3
:1022A0000022C3F8102507E07B68BA69C3F814253B
:1022B0007B680122C3F81025012318460C37BD4660
:1022C00080BC704780B584B000AFF8607A603B6036
:1022D0000B467B817A89FB68C3F850257968F868DA
:1022E00000F01CF87B68002B14BF01230023DBB235
:1022F0001A46FB68C3F808253968F86800F01CF82E
:102300003B68002B14BF01230023DBB21A46FB6895
:10231000C3F80C2500BF1037BD4680BD80B483B024
:1023200000AF786039603A687B68C3F8382500BF31
:102330000C37BD4680BC704780B483B000AF786076
:1023400039603A687B68C3F8402500BF0C37BD464A
:1023500080BC704780B483B000AF78607B681B6836
:102360001F2B02D84FF0A04306E07B681B6803F0E8
:102370001F027B681A60034B18460C37BD4680BCB1
:10238000704700BF0003005080B584B000AF786094
:10239000084611461A460346FB700B46BB701346AF
:1023A0007B703B1D1846FFF7D5FFF860FA78BB78C5
:1023B0005B001A437B789B001A433B7E1B0242EA78
:1023C00003013B7F1B047A681943FB6802F5E07246
:1023D00043F8221000BF1037BD4680BD80B584B0E1
:1023E00002AF7860002301930023009300230122B1
:1023F00001217868FFF7C8FF00BF0837BD4680BDE0
:1024000080B584B002AF78600B46FB70FB78002289
:10241000019200220092002200217868FFF7B4FFA9
:1024200000BF0837BD4680BD80B588B002AF786078
:102430007B689B79002B0AD17B681B781846FFF7D5
:10244000CDFF7B685B781846FFF7C8FF0BE07B6821
:102450001B7800211846FFF7D3FF7B685B780021CB
:102460001846FFF7CDFF7B689B78FF2B06D07B6873
:102470009B787B617869FFF7B1FF02E04FF0FF3393
:102480007B617B68DB78FF2B06D07B68DB783B6168
:102490003869FFF7A3FF02E04FF0FF333B617B6831
:1024A0001B79FF2B07D07B681B79FB600021F86844
:1024B000FFF7A6FF02E04FF0FF33FB607B681B785D
:1024C00019467B685B781A46FB6801933B69009369
:1024D0007B690348FFF77EFE00BF1837BD4680BD0D
:1024E00000500240F0B589B004AF78603960204BED
:1024F0001B79002B03D01F4BFB60FB6834E07B682B
:102500009C797B68DD797B681E7A7B685B7A7A6868
:10251000927A7968C9687868007C03900291019288
:10252000009333462A4621461348FFF773FE0346BD
:1025300083F00103DBB2002B03D0104BFB60FB6880
:1025400012E07868FFF770FF094A3B6813607B6808
:102550005B7919462520FFF791FD2520FFF74EFDF9
:10256000034B01221A71064B18461437BD46F0BDC5
:10257000880000200500AD0B005002400400AD0BA8
:102580000000AD0B80B582B002AF00F033F925201A
:10259000FFF750FD4FF0FF3301934FF0FF330093EF
:1025A0004FF0FF334FF0FF324FF0FF310448FFF799
:1025B00011FE044B00221A7100BFBD4680BD00BF52
:1025C000005002408800002080B584B000AF7860E1
:1025D0000B467B8013467B704C4B1B79012B03D041
:1025E0004B4BFB60FB688CE07B681B68002B0AD0C0
:1025F0007B681B681846FFF76BFD034683F00103F9
:10260000DBB2002B0ED17B685B68002B0ED07B68A1
:102610005B681846FFF75CFD034683F00103DBB2FD
:10262000002B03D03B4BFB60FB686AE07B681B68B8
:10263000002B14BF01230023D9B2344A537961F32C
:10264000000353717B685B68002B14BF01230023D8
:10265000D9B22E4A537961F3410353712B4A53790E
:102660006FF382035371294A53796FF3C303537194
:10267000264A53796FF304135371244A7B88D3801D
:10268000224B7A68083392E8030083E803001F4B6B
:1026900000221A611D4B00225A611C4BD9881B4B2A
:1026A0009A681A4BDB681C48FFF70CFE1A48FFF7C4
:1026B00077FD164B02221A714FF482711648FFF70C
:1026C00029FD4FF48A711448FFF724FD4FF48471FB
:1026D0001148FFF71FFD0D4B5B795B0003F0020211
:1026E0000A4B5B791B0103F02003134343F00403FF
:1026F00019460948FFF738FD00210748FFF7FAFCA3
:10270000064B18461037BD4680BD00BF880000202C
:102710000500AD0B0A00AD0B005002400000AD0BF0
:1027200080B584B000AF78602D4B5B79C3F30013A4
:10273000DBB283F00103DBB2002B03D0294BFB603B
:10274000FB6848E07B681B68002B0AD07B681B682D
:102750001846FFF7BDFC034683F00103DBB2002BF4
:102760000ED17B685B68002B0ED07B685B681846D7
:10277000FFF7AEFC034683F00103DBB2002B03D06E
:10278000194BFB60FB6826E0154B5B7903F00203F5
:10279000DBB2002B05D07B685B6819461348FFF756
:1027A000CBFD0F4B5B7903F00103DBB2002B05D0AF
:1027B0007B681B6819460D48FFF7B0FD084B7A6827
:1027C000083392E8030083E80300054A53796FF366
:1027D00004135371064B18461037BD4680BD00BF29
:1027E000880000200500AD0B0A00AD0B0050024030
:1027F0000000AD0B80B500AF0A4A53796FF30413A4
:10280000537122210848FFF7BDFC04210648FFF759
:1028100071FC064B01221A60054B01221A6000BFB1
:1028200080BD00BF880000200050024038500240A8
:102830003C50024080B582B000AF4FF48A717648B8
:10284000FFF77EFC0346002B1CD04FF48A717248C0
:10285000FFF760FC714A537943F0080353716F4BE3
:102860005B7903F00203DBB2002B0BD06B4B5B797F
:1028700003F01003DBB2002B04D0684A537943F015
:10288000200353714FF482716348FFF759FC0346EC
:10289000002B1CD04FF482715F48FFF73BFC5F4A6E
:1028A000537943F0040353715C4B5B7903F00103EC
:1028B000DBB2002B0BD0594B5B7903F01003DBB27A
:1028C000002B04D0554A537943F0200353714FF441
:1028D00084715148FFF734FC0346002B19D04FF4A4
:1028E00084714D48FFF716FC04214B48FFF74AFC62
:1028F0004948FFF762FC494B1B680021484898474C
:10290000464B1B68002147489847444B01221A71E7
:102910007EE0424B5B7903F00203DBB2002B14D064
:102920003E4B5B7903F00103DBB2002B0DD03B4B38
:102930005B7903F00803DBB2002B06D0374B5B79E1
:1029400003F00403DBB2002B21D1344B5B79C3F3DA
:102950000003DBB283F00103DBB2002B06D02F4B68
:102960005B7903F00803DBB2002B10D12B4B5B79B2
:10297000C3F34003DBB283F00103DBB2002B47D08B
:10298000264B5B7903F00403DBB2002B40D0234AD3
:1029900053796FF3C3035371204A53796FF3820362
:1029A00053711E4B5B7903F02003DBB2002B0FD079
:1029B0001A4A53796FF345135371184A537943F008
:1029C00010035371154B1B680121002098471FE02D
:1029D000124A3B46103292E8030083E803000F4B93
:1029E0000E4A1033083292E8030083E803000B4BD1
:1029F00000229A60094B0022DA60084A537943F0BA
:102A000010035371054B1B683A4601211046984745
:102A100000BF0837BD4680BD00500240880000203E
:102A2000980000209000002080B483B000AF0346DF
:102A3000FB7197F90730002B0BDBFB7903F01F02CA
:102A4000064997F907305B09012000FA02F241F8C4
:102A5000232000BF0C37BD4680BC704700E100E07A
:102A600080B483B000AF0346FB7197F90730002BA9
:102A700012DBFB7903F01F020A4997F907305B0963
:102A8000012000FA02F2203341F82320BFF34F8FD8
:102A900000BFBFF36F8F00BF00BF0C37BD4680BCC7
:102AA000704700BF00E100E080B483B000AF034690
:102AB0003960FB7197F90730002B0ADB3B68DAB20B
:102AC0000C4997F907305201D2B20B4483F8002326
:102AD0000AE03B68DAB20849FB7903F00F03043BD4
:102AE0005201D2B20B441A7600BF0C37BD4680BCEF
:102AF000704700BF00E100E000ED00E080B485B069
:102B000000AF78601C4B01225A601B4B0022C3F8B7
:102B100000257B681B68184A03F00F03C2F80835CC
:102B20007B681B6803F00703072B09D17B681B68D0
:102B30001B0CFB60104AFB6803F00103C2F80C3564
:102B40007B681B790C4A03F00303C2F820357B68CD
:102B50005B79094A03F00103C2F83835064B0022BD
:102B6000C3F80022044B0F22C3F8082300BF143718
:102B7000BD4680BC704700BF0030014080B485B0C6
:102B800000AF0346FB710D4BD3F80035FB600B4BD8
:102B90000022C3F80025FA79084BD3F8043523F056
:102BA000070306491343C1F80435044AFB68C2F819
:102BB000003500BF1437BD4680BC7047003001406F
:102BC00080B400AF0B4B0122C3F80025094B002253
:102BD000C3F80021074B0022C3F80421054B002253
:102BE000C3F80821034B0022C3F80C2100BFBD46E7
:102BF00080BC70470030014080B400AF034B00221E
:102C0000C3F8002500BFBD4680BC704700300140BE
:102C100080B483B000AF7860044A7B68C2F80433A4
:102C200000BF0C37BD4680BC704700BF003001407C
:102C300080B483B000AF7860074BD3F804237B687F
:102C40001340002B14BF01230023DBB218460C37BE
:102C5000BD4680BC704700BF0030014080B483B0E7
:102C600000AF7860064BD3F8002205497B68134318
:102C7000C1F8003200BF0C37BD4680BC704700BFB2
:102C80000030014080B483B000AF0346FB71FB7994
:102C900003F1804303F5983301221A6000BF0C371B
:102CA000BD4680BC704780B485B000AF0346FB8052
:102CB000FB8803F1804303F5983300221A60FB88F8
:102CC00003F1804303F598331B68FB60FB6800BF8A
:102CD0001437BD4680BC704780B483B000AF034654
:102CE000FB80FB8803F1804303F598331B68002BBE
:102CF00014BF01230023DBB218460C37BD4680BC4D
:102D0000704780B582B000AF03463960FB80FB8816
:102D10001846FFF7E1FF0346002B0ED03868FFF797
:102D200087FF0346002B08D0FB881846FFF7BBFF40
:102D3000044B1B68FA881046984700BF0837BD4609
:102D400080BD00BFA000002080B500AF01214FF47E
:102D50008070FFF7D6FF02214FF48270FFF7D1FF9A
:102D600004214FF48470FFF7CCFF08214FF48670E4
:102D7000FFF7C7FF00BF80BD80B584B000AF7860AB
:102D80003960264B1B78002B03D0254BFB60FB687A
:102D900040E0244A3B6813602349244814F038F883
:102DA0000346234A934203D0224BFB60FB6831E089
:102DB0007B681846FFF7A2FE7B681B7A1846FFF770
:102DC000DDFE7B681B79022B09D0022B0FDC002B68
:102DD00009D0012B0BD10420FFF71AFF08E00220D5
:102DE000FFF716FF04E00820FFF712FF00E000BF26
:102DF0000120FFF733FF7B685B7A19461320FFF74A
:102E000053FE1320FFF710FE044B01221A70084BEB
:102E1000FB60FB6818461037BD4680BDA40000204B
:102E20000500AD0BA0000020492D0000003001403E
:102E30000000AD0B0B00AD0B80B500AF1320FFF70A
:102E40000FFE00F01FF8054814F010F8044B0022A4
:102E50001A70044B00221A6000BF80BD0030014090
:102E6000A4000020A000002080B500AFFFF7A8FE5E
:102E70000020FFF707FF024B02221A7000BF80BD3F
:102E8000A400002080B500AFFFF7B6FE0420FFF7D6
:102E9000F9FE024B01221A7000BF80BDA400002081
:102EA00080B483B000AF0346FB7197F90730002B65
:102EB0000BDBFB7903F01F02064997F907305B092A
:102EC000012000FA02F241F8232000BF0C37BD4672
:102ED00080BC704700E100E080B483B000AF0346DF
:102EE000FB7197F90730002B12DBFB7903F01F020F
:102EF0000A4997F907305B09012000FA02F22033F2
:102F000041F82320BFF34F8F00BFBFF36F8F00BF87
:102F100000BF0C37BD4680BC704700BF00E100E039
:102F200080B483B000AF0346FB7197F90730002BE4
:102F30000CDBFB7903F01F02074997F907305B09A7
:102F4000012000FA02F2603341F8232000BF0C3761
:102F5000BD4680BC704700BF00E100E080B483B094
:102F600000AF03463960FB7197F90730002B0ADB8D
:102F70003B68DAB20C4997F907305201D2B20B44E0
:102F800083F800230AE03B68DAB20849FB7903F0D2
:102F90000F03043B5201D2B20B441A7600BF0C3728
:102FA000BD4680BC704700BF00E100E000ED00E0DE
:102FB00080B483B000AF0346FB71FB7903F180431B
:102FC00003F5A04301221A6000BF0C37BD4680BC48
:102FD000704780B483B000AF0346FB80FB8803F1E9
:102FE000804303F5A04300221A60BFF34F8F00BF58
:102FF00000BF0C37BD4680BC704780B483B000AFC3
:103000000346FB80FB8803F1804303F5A0431B6864
:10301000002B14BF01230023DBB218460C37BD463A
:1030200080BC704780B483B000AF7860044A7B688E
:10303000C2F8043300BF0C37BD4680BC704700BFE8
:103040000050004080B483B000AF7860074BD3F8E5
:1030500004237B681340002B14BF01230023DBB241
:1030600018460C37BD4680BC704700BF005000407A
:1030700080B483B000AF7860044A7B68C2F808333C
:1030800000BF0C37BD4680BC704700BF00500040F9
:1030900080B400AF034BD3F804341846BD4680BC5F
:1030A000704700BF0050004080B483B000AF78602C
:1030B000044A7B68C2F8043400BF0C37BD4680BCAC
:1030C000704700BF0050004080B400AF034BD3F8FE
:1030D0000C341846BD4680BC704700BF005000400D
:1030E00080B483B000AF7860044A7B68C2F80C34C7
:1030F00000BF0C37BD4680BC704700BF0050004089
:1031000080B400AF054BD3F82034DBB203F00103E9
:10311000DBB21846BD4680BC704700BF005000407F
:1031200080B400AF034BD3F83C34DBB21846BD4645
:1031300080BC70470050004080B483B000AF78601E
:10314000054A7B68C3F31303C2F8083500BF0C3788
:10315000BD4680BC704700BF0050004080B483B0C3
:1031600000AF0346FB71044AFB79C2F80C3500BF7F
:103170000C37BD4680BC70470050004080B400AFA3
:10318000034BD3F810351846BD4680BC704700BFCE
:103190000050004080B483B000AF78600B467B8065
:1031A000074A7B68C2F810357B88054AC3F30803D9
:1031B000C2F8143500BF0C37BD4680BC704700BF55
:1031C0000050004080B400AF054BD3F81C359BB2D3
:1031D000C3F30B039BB21846BD4680BC704700BFCB
:1031E0000050004080B483B000AF0346FB80FB88F2
:1031F000044AC3F30B03C2F81C3500BF0C37BD46AD
:1032000080BC70470050004080B485B000AF0346DA
:10321000FB710A4BD3F824359BB2C3F30B03FB813C
:10322000FB79002B01D0102300E00023FA89D31A88
:103230009BB218461437BD4680BC70470050004012
:1032400080B485B000AF78600B46FB70FB78C02B74
:1032500001D0FB7800E04023FB73FB7B002B28D0E0
:10326000FB7B802B12D17B681B781A047B680133AF
:103270001B781B0213437A680232127811461F4AE8
:103280000B43C2F898357B6803337B607B681B78FF
:103290001A047B6801331B781B0213437A680232DD
:1032A00012781146154A0B43C2F894357B680333F4
:1032B0007B607B681B781A067B6801331B781B04D4
:1032C0001A437B6802331B781B0213437A6803326C
:1032D00012781146094A0B43C2F89035074BD3F8D0
:1032E000A03523F0C002FB7B04491343C1F8A0358D
:1032F00000BF1437BD4680BC704700BF005000407F
:1033000080B400AF054BD3F89C35044A23F0010389
:10331000C2F89C3500BFBD4680BC704700500040DD
:1033200080B400AF054BD3F89C35044A43F0010349
:10333000C2F89C3500BFBD4680BC704700500040BD
:1033400080B483B000AF0346FB71074BD3F8A035C0
:1033500023F01F02FB7904491343C1F8A03500BFD5
:103360000C37BD4680BC70470050004080B483B02D
:1033700000AF0346FB71084BD3F8A43523F060027D
:10338000FB795B0104491343C1F8A43500BF0C3736
:10339000BD4680BC704700BF0050004080B483B081
:1033A00000AF78607B68D3F81035DBB218460C3775
:1033B000BD4680BC70472DE9F00386B000AF786051
:1033C0000B46FB70FB787B617B6800229846914638
:1033D0004FF000024FF000034FEA091343EA18735D
:1033E0004FEA08127969C1F12006A1F1200022FA02
:1033F00001F403FA06F6344323FA00F0044323FAF7
:1034000001F5C7E90245BB6818461837BD46BDE857
:10341000F003704780B582B000AF786039607B6898
:103420001B681846FFF7BAFF034619463868FFF7CE
:10343000C2FF034618460837BD4680BD80B500AFC1
:103440000320FFF78BFE0420FFF77AFF00BF80BD4B
:1034500080B582B000AF0346FB71FB79002B04D02E
:103460004FF48050FFF768FE04E0044BDB68184619
:10347000FFF762FE00BF0837BD4680BDA8000020F0
:1034800080B586B000AF0346FB71334B1B7A002B2F
:1034900058D1FB79DBB2032B08D100F07AF903464F
:1034A000002B01D0022300E00123FB71FB79DBB28A
:1034B000012B28D0022B47D1284B5B7ADBB283F05B
:1034C0000103DBB2002B41D0234B00225A72224B66
:1034D00000229A72204B01221A721F4808F0AEFD9A
:1034E0001D4808F03BFD1D4B01225A720223BB60B0
:1034F0001A4B5B68002B29D0184B5B6807F1080258
:103500001046984722E0154B5B7ADBB2002B1FD0A8
:103510000820FFF74DFD4FF48F60FFF7A9FD0F4B1B
:1035200000225A720423BB600120FFF791FF0B4B6E
:103530005B68002B0CD0094B5B6807F10802104652
:10354000984705E000BF04E000BF02E000BF00E0D4
:1035500000BF1837BD4680BD00000020A800002035
:1035600080B500AF114B1B78002B09D00F4B002208
:103570001A700F4B00221A720320FFF781FF13E02D
:103580000B4B5B7A002B0FD0094B9B7A002B0BD097
:103590000020FFF70DFD054B01221A70044808F0CA
:1035A0004DFD034808F0DAFC80BD00BFB8000020E4
:1035B0000000002080B582B000AF03463960FB8078
:1035C000FB88B3F5A07F08D1064B01229A7205480B
:1035D00008F0E0FCFFF7C4FF00E000BF0837BD467D
:1035E00080BD00BF0000002080B586B002AF3B1D4B
:1035F00000221A605A6004233B710723FB713B1DB4
:103600000E4A19460E4808F006FCF860FB680D4AA1
:10361000934201D0FB680DE04FF47A710848FFF740
:10362000F9FE02460123009301230021044808F01B
:1036300073FDFB6818461037BD4680BDB5350000E8
:10364000000000200000AD0B80B483B000AF034643
:10365000FB71FB790A2B0AD00A2B0ADC042B02D05F
:10366000072B02D005E0002304E0402302E0802382
:1036700000E0402318460C37BD4680BC704780B53B
:1036800082B000AF7860054B1A687B68134018461B
:10369000FFF7C8FC00BF0837BD4680BDA80000206A
:1036A00080B586B000AF78601D4B7B611D4B1B7AE7
:1036B000002B01D01C4B2FE01A4B7A6892E80300D4
:1036C00083E80300FFF7BAFE0520FFF729FC072176
:1036D0000520FFF743FC0520FFF7E2FBFFF784FF1F
:1036E00078617B690E4A934215D107F10C030721DB
:1036F000184600F055F9786107F10C03C02118460F
:10370000FFF79EFD074B01221A72064B4FF48052C1
:10371000DA607B6900E07B6918461837BD4680BDDA
:103720000000AD0BA80000200500AD0B80B500AF78
:1037300000F024F80520FFF7CFFB0520FFF7F0FB92
:10374000034808F0DBFB034B00221A7200BF80BD68
:1037500000000020A800002080B500AF0120FFF786
:10376000A3FC0820FFF724FC0348FFF75BFC0420C0
:10377000FFF758FC00BF80BD8200080080B500AF95
:103780004FF0FF30FFF774FC0420FFF711FC00BF7F
:1037900080BD80B582B000AFFFF7C2FC03467B60FE
:1037A0007B6803F00103002B06D17B6803F0020362
:1037B000002B01D1002300E0012318460837BD4645
:1037C00080BD80B582B000AF78607B685A687B6846
:1037D0001B689BB219461046FFF7DCFC4FF48C6067
:1037E000FFF74DFF1C20FFF7E3FB00BF0837BD4686
:1037F00080BD80B584B000AF78600B46FB701F4B76
:10380000FB607B681B68002B01D11D4B31E04FF43E
:103810008670FFF7F2FB0346002B08D00820FFF765
:1038200011FC0346002B02D0164BFB6020E0164B28
:1038300001221A607B685A687B681B689BB2194634
:103840001046FFF7A7FC7B681B689BB2DB009BB2AE
:103850001846FFF7C7FCFB781846FFF77FFC0020EF
:10386000FFF7F6FD1820FFF70AFF0C20FFF7A0FB7B
:10387000FB6818461037BD4680BD00BF0000AD0B89
:103880000600AD0B0B00AD0B1050004080B582B0B0
:1038900000AF0346FB71FB79002B05D1064B0122DB
:1038A0005A72FFF75DFE03E0FB791846FFF780FBD5
:1038B0000837BD4680BD00BF0000002080B582B043
:1038C00000AF0346FB71FB79292B0CD1FFF718FCE5
:1038D0000346012B03D12820FFF76AFB07E02420D1
:1038E000FFF766FB03E0FB791846FFF761FB012059
:1038F000FFF7AEFD4FF48F60FFF7BAFB00BF08374C
:10390000BD4680BD80B586B000AF78607B681B780F
:10391000022B28D0022B35DC002B02D0012B16D035
:1039200030E07B685B683B61194BFB60FB680133EF
:103930003A699A4201D9174B26E03A69FB689342EB
:1039400028BF13463B61144A3B69D3601BE07B6888
:103950001B79032B01D90F4B16E07B681B791846A6
:10396000FFF704FD0FE07B681B7A1846FFF76CFE3B
:103970000346FB757B685B68FA7D11461846FFF7C6
:103980005FFC00E000BF054B18461837BD4680BD00
:10399000FFFF0F000400AD0BA80000200000AD0BDE
:1039A00080B487B000AF786039603B68042B07D0E3
:1039B0003B68072B04D03B680A2B01D0314B5CE0FD
:1039C0004FF08053D3F850347B614FF08053D3F8DD
:1039D00054343B614FF08053D3F85834FB607B691B
:1039E000DAB27B681A707B691A0A7B680133D2B23B
:1039F0001A707B691A0C7B680233D2B21A707B682A
:103A000003333A69D2B21A703B68042B34D03B6955
:103A10001A0A7B680433D2B21A703B691A0C7B68AD
:103A20000533D2B21A703B691A0E7B680633D2B2E4
:103A30001A703B680A2B11D17B680733FA68D2B23F
:103A40001A70FB681A0A7B680833D2B21A70FB68D6
:103A50001A0C7B680933D2B21A700DE07B6803330D
:103A60001B78882B08D17B6803331A787B68033373
:103A700042F01102D2B21A70034B18461C37BD46F1
:103A800080BC70470600AD0B0000AD0B80B500AFE9
:103A9000FFF736FC00BF80BD80B500AFFFF740FCEC
:103AA00000BF80BD80B596B000AF002387F85730C7
:103AB0004FF48270FFF7A1FA0346002B0CD00220CE
:103AC000FFF7C0FA0346002B06D04FF48270FFF7D1
:103AD00080FA022387F857304FF48470FFF78DFA8D
:103AE0000346002B12D00420FFF7ACFA0346002B4C
:103AF0000CD04FF48470FFF76CFA97F85730002B16
:103B000001D1012300E0032387F8573097F857309D
:103B1000002B04D097F857301846FFF7B1FC4FF44C
:103B20008C70FFF76AFA0346002B48D04020FFF75D
:103B300089FA0346002B42D04FF48C70FFF749FA04
:103B400007F1400300221A605A609A60DA6040234D
:103B50003B6400237B64FFF711FB0346FB640120F9
:103B6000FFF752FB0346DB089BB2BB644FF4947033
:103B7000FFF743FA0346002B13D04FF48060FFF7A2
:103B800061FA0346002B0CD0FFF79EFA034603F0C0
:103B90000D037B644FF49470FFF71BFA0D20FFF7C1
:103BA0009FFA6B4B5B68002B05D0694B5B6807F194
:103BB0004002104698474FF48670FFF70AFA4FF418
:103BC0008870FFF71AFA0346002B1FD01020FFF76A
:103BD00039FA0346002B19D04FF48870FFF7F9F932
:103BE00007F1300300221A605A609A60DA601023ED
:103BF0003B631820FFF73CFA554B5B68002B05D060
:103C0000534B5B6807F13002104698474FF4A6709B
:103C1000FFF7F3F90346002B37D04FF40020FFF7EE
:103C200011FA0346002B30D04FF4A670FFF7D1F9FC
:103C30004FF48C70FFF7CDF94FF49470FFF7C9F98A
:103C40004FF48670FFF7C5F94FF48870FFF7C1F99C
:103C50000020FFF7FDFB0D20FFF742FA0120FFF7E0
:103C600023FA07F1200300221A605A609A60DA6092
:103C70004FF400233B62364B5B68002B05D0344B7E
:103C80005B6807F12002104698474FF48E70FFF7EB
:103C9000B4F90346002B30D08020FFF7D3F9034658
:103CA000002B2AD0FFF7F4F938654FF48E70FFF738
:103CB00090F907F1100300221A605A609A60DA60E6
:103CC00080233B613B6D03F00103002B0ED00120EC
:103CD000FFF7EAF900233B751D4B5B68002B05D00D
:103CE0001B4B5B6807F11002104698473B6D23F0B1
:103CF00001033B650120FFF7D7F94FF48670FFF70A
:103D00007CF90346002B1ED00820FFF79BF90346E1
:103D1000002B18D04FF48670FFF75BF90C4B5B68F3
:103D2000002B10D008233B60FFF728FA0346BB6046
:103D3000FFF748FA0346DB089BB27B60044B5B68E5
:103D40003A461046984700BF5837BD4680BD00BF71
:103D5000A800002080B483B000AF78607B68D3F8FF
:103D6000003403F00103002B14BF01230023DBB256
:103D700018460C37BD4680BC704780B483B000AF96
:103D800078600B46FB70FA787B68C3F8042500BFA7
:103D90000C37BD4680BC704780B483B000AF7860FC
:103DA00039607B683A68C3F8082500BF0C37BD4608
:103DB00080BC704780B483B000AF78607B6801221C
:103DC000C3F8142500BF0C37BD4680BC704780B4D3
:103DD00083B000AF78607B680122C3F80C2500BF78
:103DE0000C37BD4680BC704780B483B000AF7860AC
:103DF00039607B683A68C3F81C2500BF0C37BD46A4
:103E000080BC704780B483B000AF78607B68D3F823
:103E10001C3518460C37BD4680BC704780B483B053
:103E200000AF786039607B683A68C3F8182500BF36
:103E30000C37BD4680BC704780B483B000AF78605B
:103E40007B681B6918460C37BD4680BC704780B440
:103E500083B000AF78607B685B6918460C37BD465D
:103E600080BC704780B582B000AF00237B604FF00C
:103E70008050FFF7E1FF78607B6818460837BD4641
:103E800080BD80B582B000AF00237B604FF08050D2
:103E9000FFF7DDFF78607B6818460837BD4680BDB8
:103EA00098B500AFFFF7DEFF0446FFF7EAFF0346D1
:103EB00004FB03F3184698BD80B582B000AF78606C
:103EC000FFF7D0FF02467B68B3FBF2F101FB02F281
:103ED0009B1A002B0CBF01230023DBB218460837C6
:103EE000BD4680BD80B489B000AFF860B9607A602B
:103EF000FB6803F00303FB614FF0FF337B6100239A
:103F0000BB610EE0BA68BB691A4407F11401FB6992
:103F10000B4412781A70FB690133FB61BB690133F2
:103F2000BB61BA697B689A42ECD37B691846243737
:103F3000BD4680BC704780B500AF00210248FFF746
:103F40001CFF00BF80BD00BF00E0014080B500AF96
:103F500001210248FFF711FF00BF80BD00E00140D2
:103F600080B500AF02210248FFF707FF00BF80BD08
:103F700000E0014080B582B000AF7860396000BFDA
:103F80000948FFF7E7FE034683F00103DBB2002B8D
:103F9000F6D17B683A681A60BFF35F8F00BF00BF3D
:103FA0000837BD4680BD00BF00E0014080B586B047
:103FB00000AFF860B9607A6000237B610EE07B6936
:103FC0009A00FB68D0187B699B00BA6813441B6891
:103FD0001946FFF7CFFF7B6901337B617A697B6804
:103FE0009A42ECD300BF00BF1837BD4680BD80B5F4
:103FF00082B000AF78607868FFF75EFF034683F019
:104000000103DBB2002B01D00C4B12E0FFF7A8FF3D
:1040100079680B48FFF7C0FE00BF0948FFF79AFE1A
:10402000034683F00103DBB2002BF6D1FFF783FFD9
:10403000044B18460837BD4680BD00BF0A00AD0BD3
:1040400000E001400000AD0B80B500AFFFF788FF36
:104050000848FFF7AFFE00BF0648FFF77BFE0346A8
:1040600083F00103DBB2002BF6D1FFF764FF024BB4
:10407000184680BD00E001400000AD0B80B500AFE8
:10408000FFF76EFF0848FFF7A2FE00BF0648FFF7E4
:1040900061FE034683F00103DBB2002BF6D1FFF78C
:1040A0004AFF00BF80BD00BF00E0014080B582B084
:1040B00000AF786039607868FFF7FEFE034683F052
:1040C0000103DBB2002B01D0084B0AE0084B0022B1
:1040D0001A60084A7B68136039680748FFF784FE56
:1040E000064B18460837BD4680BD00BF0A00AD0B21
:1040F000BC0000200C00002000E001400000AD0BDF
:1041000080B582B000AF1748FFF77CFE78600221CF
:104110001448FFF732FE144B1B6819461148FFF78D
:104120007DFE00BF0F48FFF715FE034683F0010335
:10413000DBB2002BF6D1FFF7FEFE0C4B1A687B6852
:1041400013440A4A1360094B1B68542B01D80023FF
:1041500004E0054B4FF0FF321A6001231846083780
:10416000BD4680BD00E001400C000020BC000020E6
:1041700080B485B000AF78600B46FB707B681B781D
:10418000FB73FA78FB7B1340DBB2FA789A420CBFE0
:1041900001230023DBB218461437BD4680BC7047AC
:1041A00080B485B000AF786039607B681B68FB60C5
:1041B0003A68FB6813403A689A420CBF0123002317
:1041C000DBB218461437BD4680BC704780B584B05A
:1041D00000AF78600B46FB707B6823F00303FB6045
:1041E000FB1C012219467868FFF77CFE034619463E
:1041F000F86800F004F800BF1037BD4680BD80B5F8
:1042000082B000AF78603960FFF7A0FE3968786847
:10421000FFF7B0FEFFF78FFE00BF0837BD4680BD39
:1042200090B58BB000AFF860B9607A60FFF78EFE92
:10423000BB687B62FB6803F00303FB61FB69002B37
:1042400022D0FB69C3F104033B623A6A7B689A425D
:1042500001D97B683B62FA68FB69D41A3A6A796AC9
:10426000F868FFF73FFE034619462046FFF782FE37
:104270007A683B6AD31A7B60FA683B6A1344FB6036
:104280007A6A3B6A13447B627B689B08BB61BA69AC
:10429000796AF868FFF78AFEBB699B00FA681344E5
:1042A000FB60BB699B007A6A13447B627B6803F006
:1042B00003037B617B69002B09D07A69796AF8680E
:1042C000FFF710FE03461946F868FFF753FEFFF7A5
:1042D00032FE00BF2C37BD4690BD80B584B000AF24
:1042E000F860B9607A60FFF731FE7A68B968F868FB
:1042F000FFF75CFEFFF71FFE00BF1037BD4680BD15
:1043000080B500AFFFF7CCFD0346184680BD80B5F1
:1043100000AFFFF7A7FD0346184680BD80B500AF8C
:10432000FFF7AFFD0346184680BD00BF80B483B0E1
:1043300000AF0346FB7197F90730002B0BDBFB79CD
:1043400003F01F02064997F907305B09012000FAC4
:1043500002F241F8232000BF0C37BD4680BC7047F5
:1043600000E100E080B483B000AF0346FB7197F931
:104370000730002B12DBFB7903F01F020A4997F983
:1043800007305B09012000FA02F2203341F82320B4
:10439000BFF34F8F00BFBFF36F8F00BF00BF0C375D
:1043A000BD4680BC704700BF00E100E080B483B030
:1043B00000AF0346FB7197F90730002B0CDBFB794C
:1043C00003F01F02074997F907305B09012000FA43
:1043D00002F2403341F8232000BF0C37BD4680BCB9
:1043E000704700BF00E100E080B483B000AF034637
:1043F0003960FB7197F90730002B0ADB3B68DAB2B2
:104400000C4997F907305201D2B20B4483F80023CC
:104410000AE03B68DAB20849FB7903F00F03043B7A
:104420005201D2B20B441A7600BF0C37BD4680BC95
:10443000704700BF00E100E000ED00E080B483B011
:1044400000AF0346FB71FB7903F1804303F5E833CA
:1044500001221A6000BF0C37BD4680BC704780B493
:1044600083B000AF0346FB80FB8803F1804303F574
:10447000E8331B68002B14BF01230023DBB218466E
:104480000C37BD4680BC704780B485B000AF034692
:10449000FB80FB8803F1804303F5E83300221A60B8
:1044A000FB8803F1804303F5E8331B68FB60FB687E
:1044B00000BF1437BD4680BC704780B483B000AFE6
:1044C0007860044A7B68C2F8043300BF0C37BD46ED
:1044D00080BC704700D0014080B400AF034B012284
:1044E000C3F8002500BFBD4680BC704700D0014026
:1044F00080B400AF034B0022C3F8002500BFBD46C7
:1045000080BC704700D0014080B483B000AF034648
:104510000A46FB711346BB71FB7903F00102BB79BC
:104520005B0003F0020304491343C1F8083500BFE0
:104530000C37BD4680BC704700D0014080B483B0CA
:1045400000AF7860044A7B68C2F8043500BF0C37BE
:10455000BD4680BC704700BF00D0014080B483B02E
:1045600000AF78603960064A7B68C2F84035044A7B
:104570003B68C2F8443500BF0C37BD4680BC70476D
:1045800000D0014080B400AF064B4FF00042C3F8AA
:104590004025044B4FF00042C3F8442500BFBD4600
:1045A00080BC704700D0014080B483B000AF0346A8
:1045B0000A46FB711346BB71064AFB79C2F81835EF
:1045C000044ABB79C2F81C3500BF0C37BD4680BC1D
:1045D000704700BF00D0014080B483B000AF786066
:1045E0003960064A7B68C2F86035044A3B68C2F805
:1045F000643500BF0C37BD4680BC704700D0014019
:1046000080B483B000AF78607B681B681F2B02D832
:104610004FF0A04306E07B681B6803F01F027B6835
:104620001A60034B18460C37BD4680BC704700BF6C
:104630000003005080B584B000AF78600846114692
:104640001A460346FB700B46BB7013467B703B1D3E
:104650001846FFF7D5FFF860FA78BB785B001A437D
:104660007B789B001A433B7E1B0242EA03013B7F9F
:104670001B047A681943FB6802F5E07243F82210C4
:1046800000BF1037BD4680BD80B584B002AF7860F2
:104690000023019300230093002301220121786865
:1046A000FFF7C8FF00BF0837BD4680BD80B584B0A6
:1046B00002AF78600B46FB70FB780022019200226B
:1046C0000092002200217868FFF7B4FF00BF08378E
:1046D000BD4680BD80B584B000AF78603B1D1846F4
:1046E000FFF78EFFF8607B68012202FA03F3194698
:1046F000F86800F004F800BF1037BD4680BD80B4F4
:1047000083B000AF786039607B683A68C3F80C25E5
:1047100000BF0C37BD4680BC704780B58EB000AF7F
:104720004FF48070FFF79BFE0346002B69D04FF4D7
:104730008070FFF7A9FE6B4B9B7C87F83630694B86
:104740009B7C03F00103002B0CBF01230023DBB291
:1047500087F8353097F83530624A9B0013445B6820
:10476000002B04D15F4B5B7CDBB2022B2CD10023EE
:1047700087F830305B4B0022DA745A4B5B7CDBB23B
:10478000022B05D10023FB62564B01225A7411E023
:1047900097F83630534A9B0013445B68FB6297F8E6
:1047A0003630504A9B00134400225A604D4A97F815
:1047B00035309374012387F828304A4B1B6807F182
:1047C00028021046984713E0464BDB7C002B0FD1A4
:1047D00000233B7700233B62012387F82430414BC1
:1047E0000122DA743F4B1B6807F11C021046984700
:1047F0003C4B5B7CDBB2022B5DD13A4B01225A74FD
:1048000059E04FF48270FFF72AFE0346002B52D086
:104810004FF48270FFF738FEFFF76AFE314B00223B
:104820005A7400233B7600233B742E4B9B7C2D4A0D
:104830009B0013445B68002B13D02A4B9B7C294AB6
:104840009B0013445B687B61264B9B7C254A9B0045
:10485000134400225A60234B1B6807F110021046D4
:104860009847204B9B7C03F00103002B0CBF0123D6
:104870000023DBB287F8373097F83730194A9B00AE
:1048800013445B68002B13D097F83730154A9B0010
:1048900013445B687B6197F83730124A9B001344DE
:1048A00000225A600F4B1B6807F110021046984710
:1048B0000C4B00229A740B4B1B7DDBB2002B0DD0EE
:1048C00001233B710023BB6000233B73054B002297
:1048D0001A75044B1B683A1D1046984700BF3837BD
:1048E000BD4680BDC000002080B584B000AF7860B8
:1048F00039603B4B1B7C002B03D03A4BFB60FB68C1
:1049000069E07B681B7A502B03D87B685B7A502B5D
:1049100003D9354BFB60FB685DE0314B00225A60E8
:104920002F4B00229A602E4B00229A742C4B0022AF
:10493000DA742B4A3B681360294B00225A747B6857
:104940005B681846FFF7FAFD7B681A787B685B782E
:1049500019461046FFF7D8FD7B681A7A7B685B7AA8
:1049600019461046FFF720FE7B689B781846FFF734
:104970008BFE7B689B781846FFF7ACFE7B68DB7884
:1049800000211846FFF792FE7B689B781A467B68E9
:10499000DB7819461046FFF7E1FD4FF48070FFF712
:1049A00073FD4FF48470FFF76FFD4FF48270FFF7D3
:1049B0006BFD0320FFF781FD7B689B7A19461D2064
:1049C000FFF712FD1D20FFF7B1FC054B01221A7401
:1049D000064BFB60FB6818461037BD4680BD00BF24
:1049E000C00000200500AD0B0400AD0B0000AD0BB6
:1049F00080B500AFFFF77CFDFFF7C4FD024B00223E
:104A00001A7400BF80BD00BFC000002080B500AF99
:104A1000064B02221A74FFF75FFD4FF48070FFF718
:104A200033FD0020FFF70AFD00BF80BDC00000205D
:104A300080B500AF034B01221A751D20FFF7B6FCAD
:104A400000BF80BDC000002080B582B000AF0F4B1A
:104A50005B7CDBB2002B0CD00C4B5B7CDBB2012B04
:104A600003D10B4B7B607B680BE00A4B7B607B6860
:104A700007E0064B02225A74FFF7DAFF044B7B6013
:104A80007B6818460837BD4680BD00BFC0000020C7
:104A90000000AD0B0B00AD0B80B584B000AF7860AB
:104AA0000B467B802A4B1B7C002B01D1294B4BE012
:104AB000274B5B7CDBB2032B01D1274B44E07B68A7
:104AC000002B03D0B7F90230002B01DA234B3BE077
:104AD000234BFB601D20FFF745FC1D4B9B7C03F027
:104AE0000103002B0CBF01230023DBB2FB72184B28
:104AF0005B7CDBB2022B01D10023FB72FB7A144AF0
:104B00009B0013445B68002B02D0134BFB6017E043
:104B1000FB7A0F4A9B0013447A685A60FB7A0C4A6E
:104B200004335B0013447A889A807B88194678683E
:104B3000FFF752FD064B1B7C022B01D0FFF766FFEF
:104B40001D20FFF7F3FBFB6818461037BD4680BDFC
:104B5000C00000200500AD0B0B00AD0B0400AD0B39
:104B60000000AD0B80B582B000AF164B5B7CDBB2B2
:104B7000012B16D0134B5B7CDBB2002B04D0114B06
:104B80005B7CDBB2022B08D1FFF7B2FC0D4B00229D
:104B90005A740D4B7B607B680FE00C4B7B607B682D
:104BA0000BE0084B01221A74064B03225A740420AE
:104BB000FFF744FC044B7B607B6818460837BD4612
:104BC00080BD00BFC00000200000AD0B0B00AD0B8E
:104BD00080B483B000AF0346FB7197F90730002B18
:104BE0000BDBFB7903F01F02064997F907305B09DD
:104BF000012000FA02F241F8232000BF0C37BD4625
:104C000080BC704700E100E080B483B000AF034691
:104C1000FB7197F90730002B12DBFB7903F01F02C1
:104C20000A4997F907305B09012000FA02F22033A4
:104C300041F82320BFF34F8F00BFBFF36F8F00BF3A
:104C400000BF0C37BD4680BC704700BF00E100E0EC
:104C500080B483B000AF03463960FB7197F9073029
:104C6000002B0ADB3B68DAB20C4997F90730520196
:104C7000D2B20B4483F800230AE03B68DAB2084959
:104C8000FB7903F00F03043B5201D2B20B441A76B6
:104C900000BF0C37BD4680BC704700BF00E100E09C
:104CA00000ED00E080B483B000AF78607B681B0B40
:104CB0005BB218460C37BD4680BC704780B485B0E7
:104CC00000AF0346FB80FB8803F1804300221A609B
:104CD000FB8803F180431B68FB60FB6800BF14374F
:104CE000BD4680BC704780B483B000AF0346FB80F4
:104CF000FB8803F180431B68002B14BF01230023B2
:104D0000DBB218460C37BD4680BC704780B584B016
:104D100000AF0346FB80FB881846FFF7E4FF03461D
:104D2000FB73FB7B002B03D0FB881846FFF7C6FF05
:104D3000FB7B18461037BD4680BD80B483B000AF02
:104D400078604FF080427B68C2F8043300BF0C37B4
:104D5000BD4680BC704780B400AF4FF08043D3F8AD
:104D600004331846BD4680BC704780B483B000AFA2
:104D700078604FF080427B68C2F8083300BF0C3780
:104D8000BD4680BC704780B485B000AF03460A467C
:104D9000FB711346BB714FF08043D3F81035FB60B5
:104DA000FB6823F01F03FB60BB795B00FA79002AE4
:104DB00001D0012200E000221343FA681343FB6094
:104DC0004FF08042FB68C2F8103500BF1437BD4673
:104DD00080BC704780B485B000AF0346FB714FF0D4
:104DE0008043D3F81035FB60FB6823F47063FB60ED
:104DF000FB791B02FA681343FB604FF08042FB68AB
:104E0000C2F8103500BF1437BD4680BC704780B46F
:104E100083B000AF0346FB71FB79002B01D0012367
:104E200000E000234FF08042C2F8783500BF0C3715
:104E3000BD4680BC704780B483B000AF0346FB71B1
:104E4000FB79002B01D0012300E000234FF08042CA
:104E5000C2F8803500BF0C37BD4680BC704790B5A6
:104E600083B000AF0723FB71164C4FF08040FFF773
:104E700019FF03465B0954F823404FF08040FFF7C9
:104E800011FF0346DBB203F01F0324FA03F303F020
:104E90000103002B12D14FF08040FFF703FF0346C0
:104EA0001A46FB7919461046FFF7D2FE4FF08040B4
:104EB000FFF7F8FE03461846FFF78AFE00BF0C37DF
:104EC000BD4690BD00E100E080B400AF024B1B681E
:104ED0001846BD4680BC7047DC00002080B400AF9F
:104EE000024B1B681846BD4680BC7047E40000209A
:104EF00080B582B000AF78600F4B1B78002B01D0DB
:104F00000E4B15E07B681B78C3F34003DBB21846F9
:104F1000FFF791FF7B681B78C3F30003DBB21846F1
:104F2000FFF775FFFFF79BFF034B01221A70044B3D
:104F300018460837BD4680BDD80000200C00AD0BD8
:104F40000000AD0B80B500AF0C4B1B7883F0010364
:104F5000DBB2002B07D04FF08040FFF7A3FE0346E3
:104F60001846FFF751FE00F048F800F097F800F0FF
:104F7000C5F8034B00221A7000BF80BD200000203E
:104F8000D800002080B582B000AF786000F035F81E
:104F90007B681B68002B03D07B681B68024A136088
:104FA00000BF0837BD4680BDDC00002080B582B060
:104FB00000AF78607B681B7919460120FFF7E3FE9C
:104FC0007B685B791846FFF705FF054B1B68002BD4
:104FD00002D00420FFF7B1FE00BF0837BD4680BDF8
:104FE000DC00002080B500AF0E210020FFF7CBFED3
:104FF0000420FFF7BAFE00BF80BD80B400AF034BB2
:1050000000221A6000BFBD4680BC7047DC00002053
:1050100080B582B000AF786000F040F87B681B6814
:10502000002B03D07B681B68024A136000BF08375F
:10503000BD4680BDE000002080B584B000AF786040
:105040000023FB607B681B7903F00103DBB2002BBC
:1050500007D0FB6843F02003FB604FF48A70FFF732
:105060002DFE7B681B7903F00203DBB2002B07D017
:10507000FB6843F04003FB604FF48C70FFF71EFEAB
:10508000F868FFF75AFE00BF1037BD4680BD80B5F7
:1050900000AF6020FFF769FE00BF80BD80B400AFA5
:1050A000034B00221A6000BFBD4680BC704700BFA2
:1050B000E000002080B582B000AF786000F01EF8FC
:1050C0007B681B68002B03D07B681B68024A136057
:1050D00000BF0837BD4680BDE400002080B500AFAA
:1050E0004FF46070FFF729FE00BF80BD80B500AFB0
:1050F0004FF46070FFF739FE00BF80BD80B400AF91
:10510000034B00221A6000BFBD4680BC704700BF41
:10511000E400002080B582B000AFFFF71CFE78608D
:105120007B6803F00403002B09D04FF48470FFF771
:10513000EDFD0346002B02D02B4B1B6898477B6884
:1051400003F02003002B0AD04FF48A70FFF7DEFD36
:105150000346002B03D0254B1B68002098477B6833
:1051600003F04003002B0AD04FF48C70FFF7CEFD04
:105170000346002B03D01D4B1B68012098477B681A
:1051800003F08003002B0AD04FF48E70FFF7BEFDB2
:105190000346002B03D0164B1B68002098477B6802
:1051A00003F48073002B0AD04FF49070FFF7AEFD2C
:1051B0000346002B03D00E4B1B68012098477B68E9
:1051C00003F40073002B0AD04FF49270FFF79EFD9A
:1051D0000346002B03D0064B1B680220984700BFF4
:1051E0000837BD4680BD00BFDC000020E000002085
:1051F000E400002080B500AFFFF78CFFFBF726F935
:1052000000BF80BD80B483B000AF0346FB71FB7963
:10521000054A012101FA03F3C2F8043500BF0C3737
:10522000BD4680BC704700BF00F0014080B483B031
:1052300000AF0346FB71FB79054A012101FA03F334
:10524000C2F8083500BF0C37BD4680BC704700BFB0
:1052500000F0014080B483B000AF7860044A7B68FE
:10526000C2F8083500BF0C37BD4680BC704700BF90
:1052700000F0014080B485B000AF0346B9607A60A9
:10528000FB730949FB7BA233BA6841F83320064A15
:10529000FB7BA233DB0013447A685A6000BF1437EB
:1052A000BD4680BC704700BF00F0014080B483B0B1
:1052B00000AF03463960FB710549FB7903F51173B3
:1052C0003A6841F8232000BF0C37BD4680BC7047C8
:1052D00000F0014080B483B000AF78600B46FB70F3
:1052E000094AFB7803F5007352F823100648FB784F
:1052F0007A680A4303F5007340F8232000BF0C3797
:10530000BD4680BC704700BF00F0014080B483B050
:1053100000AF78600B46FB70094AFB7803F5007319
:1053200052F823107B68DA430548FB780A4003F5FE
:10533000007340F8232000BF0C37BD4680BC704787
:1053400000F0014080B483B000AF0346FB71064A11
:10535000FB7903F50073002142F8231000BF0C37DE
:10536000BD4680BC704700BF00F0014080B483B0F0
:1053700000AF0346FB71054AFB79012142F8331067
:1053800000BF0C37BD4680BC704700BF00F0014035
:1053900080B483B000AF0346FB71054AFB79DB00A4
:1053A000134401225A6000BF0C37BD4680BC7047D1
:1053B00000F0014080B483B000AF0346FB71FB797D
:1053C000012202FA03F318460C37BD4680BC704731
:1053D00080B483B000AF0346FB71FB79012202FA6F
:1053E00003F318460C37BD4680BC704780B582B0C9
:1053F00000AF0346FB71FB791846FFF7DBFF03465E
:10540000C3F31303002B14BF01230023DBB21846A0
:105410000837BD4680BD80B483B000AF78600123FB
:1054200018460C37BD4680BC704780B582B000AFCF
:105430000346FB71FB791846FFF7BCFF034618468D
:10544000FFF7E9FF034618460837BD4680BD80B523
:1054500082B000AF0346FB71FB791846FFF7B8FF37
:10546000034603F03F03002B14BF01230023DBB2EC
:1054700018460837BD4680BD80B582B000AF0346F0
:10548000FB71FB791846FFF795FF0246054B1B6839
:105490001340002B14BF01230023DBB2184608374A
:1054A000BD4680BDE800002080B582B000AF034655
:1054B000FB71FB791846FFF77DFF0246044B1B6822
:1054C0001343034A136000BF0837BD4680BD00BFC9
:1054D000E800002080B582B000AF0346FB71FB7985
:1054E0001846FFF767FF0346DA43044B1B68134077
:1054F000024A136000BF0837BD4680BDE8000020A7
:1055000080B400AF034B00221A6000BFBD4680BCD0
:10551000704700BFE800002090B583B000AF03469D
:10552000FB71094B1B781C46FB791846FFF750FFAF
:1055300003462340002B14BF01230023DBB218468F
:105540000C37BD4690BD00BFEC00002080B582B096
:1055500000AF0346FB71FB791846FFF739FF03469E
:10556000DAB2054B1B781343DAB2034B1A7000BF53
:105570000837BD4680BD00BFEC00002080B582B07A
:1055800000AF0346FB71FB791846FFF721FF034686
:10559000DB43DAB2044B1B781340DAB2024B1A70C9
:1055A00000BF0837BD4680BDEC00002080B400AFCE
:1055B000054B1B7823F03F03DAB2034B1A7000BF90
:1055C000BD4680BC704700BFEC00002080B582B0B3
:1055D00000AF3F237B604FF0FF30FFF73BFE00231F
:1055E000FB7018E0FB781846FFF7F2FE02467B6876
:1055F0001340002B03D0FB781846FFF7A3FEFB787F
:105600001846FFF7E5FE0346DB437A6813407B60EC
:10561000FB780133FB707B68002BE3D1FFF770FF51
:10562000FFF7C4FF00BF0837BD4680BD80B586B018
:1056300000AF7860204B7B610023FB601F4B7B61D8
:105640001F4BFB600023FB742BE0FB7C1846FFF72D
:10565000B1FE0246FB681340002B12D0FB7C1846BB
:10566000FFF70AFF034683F00103DBB2002B08D0EB
:10567000FB7C1846FFF718FF7B68FA7C1A700E4B0C
:105680007B617B690C4A93420FD0FB7C1846FFF785
:1056900091FE0346DB43FA681340FB60FB7C013359
:1056A000FB74FB68002BD0D100E000BF7B6918467B
:1056B0001837BD4680BD00BF0000AD0B0200AD0B2A
:1056C000FFFF0F0080B584B000AF0346FB710E4BA7
:1056D000FB60FB791846FFF789FE034683F0010360
:1056E000DBB2002B02D0094BFB6007E0FB791846C8
:1056F000FFF79CFDFB791846FFF7ECFEFB681846A8
:105700001037BD4680BD00BF0000AD0B0400AD0BDF
:1057100080B586B000AF0346B9607A60FB73BB68A2
:10572000002B02D07B68002B01D1144B22E0144BDC
:105730007B61FB7B1846FFF759FE034683F00103AC
:10574000DBB2002B02D00F4B7B6112E0FB7B1846D3
:10575000FFF792FE034683F00103DBB2002B02D079
:10576000094B7B6105E0FB7B7A68B9681846FFF757
:1057700081FD7B6918461837BD4680BD0900AD0B19
:105780000000AD0B0400AD0B0500AD0B80B584B07F
:1057900000AF03463960FB710C4BFB60FB79184688
:1057A000FFF76AFE034683F00103DBB2002B02D051
:1057B000074BFB6004E0FB7939681846FFF776FD7C
:1057C000FB6818461037BD4680BD00BF0000AD0B1A
:1057D0000500AD0B80B584B000AF0346FB71164BDE
:1057E000FB60FB791846FFF720FE034683F00103B8
:1057F000DBB2002B02D0114BFB6017E0FB7918469F
:10580000FFF7F4FD0346002B0CD0FB791846FFF799
:1058100033FE034683F00103DBB2002B02D0084BBA
:10582000FB6003E0FB791846FFF7ECFCFB681846C9
:105830001037BD4680BD00BF0000AD0B0400AD0BAE
:105840000500AD0B80B584B000AF0346FB71174B6C
:10585000FB60FB791846FFF7E8FD034683F0010380
:10586000DBB2002B02D0124BFB6019E0FB7918462B
:10587000FFF7BCFD0346002B0CD0FB791846FFF761
:10588000FBFD034683F00103DBB2002B02D0094B82
:10589000FB6005E0FB791846FFF7C8FC034BFB6093
:1058A000FB6818461037BD4680BD00BF0000AD0B39
:1058B0000400AD0B0500AD0B80B586B000AF78607D
:1058C00000233B611E4B7B613F233B610023FB7345
:1058D0002BE0FB7B1846FFF77BFD02463B6913403C
:1058E000002B12D0FB7B1846FFF716FE034683F011
:1058F0000103DBB2002B08D0FB7B1846FFF726FE26
:105900007B68FA7B1A700F4B7B617B690D4A93426F
:105910000FD0FB7B1846FFF75BFD0346DB433A697C
:1059200013403B61FB7B0133FB733B69002BD0D100
:1059300000E000BF7B6918461837BD4680BD00BF38
:105940000200AD0B0000AD0B80B584B000AF034684
:10595000FB71144BFB60FB791846FFF778FD03469B
:1059600083F00103DBB2002B01D00F4BFB60FB790E
:105970001846FFF7D1FD034683F00103DBB2002B8D
:1059800002D00A4BFB6007E0FB791846FFF700FDE9
:10599000FB791846FFF7F2FDFB6818461037BD4645
:1059A00080BD00BF0000AD0B0400AD0B0500AD0BCA
:1059B00080B584B000AF0346FB71124BFB60FB79EE
:1059C0001846FFF744FD034683F00103DBB2002BCA
:1059D00002D00D4BFB6010E0FB791846FFF79CFDF1
:1059E000034683F00103DBB2002B02D0074BFB60C0
:1059F00003E0FB791846FFF7B9FCFB68184610373F
:105A0000BD4680BD0000AD0B0400AD0B0500AD0B25
:105A100080B584B000AF0346FB710C4BFB60FB7993
:105A20001846FFF714FD034683F00103DBB2002B99
:105A300002D0074BFB6003E0FB791846FFF7A8FC98
:105A4000FB6818461037BD4680BD00BF0000AD0B97
:105A50000400AD0B80B584B000AF78600B46FB70DE
:105A6000184BFB60FB781846FFF7F1FC034683F008
:105A70000103DBB2002B02D0134BFB601DE0FB786F
:105A80001846FFF749FD034683F00103DBB2002B04
:105A900002D00E4BFB6010E07868FFF7BCFC0346B9
:105AA00083F00103DBB2002B02D0074BFB6004E064
:105AB000FB7819467868FFF729FCFB681846103711
:105AC000BD4680BD0000AD0B0400AD0B0500AD0B65
:105AD00080B584B000AF78600B46FB70184BFB605C
